8=FIX.4.4|9=68|35=A|34=1|49=Client|52=20170217-08:57:09.875|56=Boerse|108=30|141=Y|10=038|
8=FIX.4.4|9=68|35=A|34=1|49=Client|52=20170217-09:00:48.018|56=Boerse|108=30|141=Y|10=019|
8=FIX.4.4|9=68|35=A|34=1|49=Client|52=20170217-09:01:42.284|56=Boerse|108=30|141=Y|10=019|
8=FIX.4.4|9=68|35=A|34=1|49=Client|52=20170217-09:19:52.135|56=Boerse|108=30|141=Y|10=024|
8=FIX.4.4|9=68|35=A|34=1|49=Client|52=20170217-09:20:43.962|56=Boerse|108=30|141=Y|10=024|
8=FIX.4.4|9=68|35=A|34=1|49=Client|52=20170217-09:24:44.211|56=Boerse|108=30|141=Y|10=016|
8=FIX.4.4|9=68|35=A|34=1|49=Client|52=20170217-09:25:53.609|56=Boerse|108=30|141=Y|10=028|
8=FIX.4.4|9=68|35=A|34=1|49=Client|52=20170217-09:27:19.234|56=Boerse|108=30|141=Y|10=026|
8=FIX.4.4|9=68|35=A|34=1|49=Client|52=20170217-09:28:05.950|56=Boerse|108=30|141=Y|10=027|
8=FIX.4.4|9=68|35=A|34=1|49=Client|52=20170217-09:33:12.159|56=Boerse|108=30|141=Y|10=022|
8=FIX.4.4|9=68|35=A|34=1|49=Client|52=20170217-09:34:12.543|56=Boerse|108=30|141=Y|10=020|
8=FIX.4.4|9=68|35=A|34=1|49=Client|52=20170217-09:46:14.492|56=Boerse|108=30|141=Y|10=028|
8=FIX.4.4|9=68|35=A|34=1|49=Client|52=20170302-09:44:08.002|56=Boerse|108=30|141=Y|10=011|
8=FIX.4.4|9=66|35=A|34=2|49=Client|52=20170302-09:44:08.980|56=Boerse|98=0|108=5|10=157|
8=FIX.4.4|9=66|35=A|34=1|49=Boerse|52=20170302-09:44:09.027|56=Client|98=0|108=5|10=149|
8=FIX.4.4|9=64|35=2|34=2|49=Boerse|52=20170302-09:44:09.038|56=Client|7=1|16=0|10=023|
8=FIX.4.4|9=97|35=4|34=1|43=Y|49=Client|52=20170302-09:44:09.053|56=Boerse|122=20170302-09:44:09.053|36=3|123=Y|10=168|
8=FIX.4.4|9=55|35=0|34=3|49=Client|52=20170302-09:44:14.980|56=Boerse|10=157|
8=FIX.4.4|9=55|35=0|34=3|49=Boerse|52=20170302-09:44:14.983|56=Client|10=160|
8=FIX.4.4|9=55|35=0|34=4|49=Client|52=20170302-09:44:19.980|56=Boerse|10=163|
8=FIX.4.4|9=55|35=0|34=4|49=Boerse|52=20170302-09:44:19.983|56=Client|10=166|
8=FIX.4.4|9=55|35=0|34=5|49=Client|52=20170302-09:44:24.980|56=Boerse|10=160|
8=FIX.4.4|9=55|35=0|34=5|49=Boerse|52=20170302-09:44:24.983|56=Client|10=163|
8=FIX.4.4|9=55|35=0|34=6|49=Client|52=20170302-09:44:29.981|56=Boerse|10=167|
8=FIX.4.4|9=55|35=0|34=6|49=Boerse|52=20170302-09:44:29.985|56=Client|10=171|
8=FIX.4.4|9=55|35=0|34=7|49=Client|52=20170302-09:44:34.980|56=Boerse|10=163|
8=FIX.4.4|9=55|35=0|34=7|49=Boerse|52=20170302-09:44:34.983|56=Client|10=166|
8=FIX.4.4|9=55|35=0|34=8|49=Client|52=20170302-09:44:39.980|56=Boerse|10=169|
8=FIX.4.4|9=55|35=0|34=8|49=Boerse|52=20170302-09:44:39.983|56=Client|10=172|
8=FIX.4.4|9=55|35=0|34=9|49=Client|52=20170302-09:44:44.980|56=Boerse|10=166|
8=FIX.4.4|9=55|35=0|34=9|49=Boerse|52=20170302-09:44:44.984|56=Client|10=170|
8=FIX.4.4|9=56|35=0|34=10|49=Client|52=20170302-09:44:49.981|56=Boerse|10=213|
8=FIX.4.4|9=56|35=0|34=10|49=Boerse|52=20170302-09:44:49.984|56=Client|10=216|
8=FIX.4.4|9=56|35=0|34=11|49=Client|52=20170302-09:44:54.980|56=Boerse|10=209|
8=FIX.4.4|9=56|35=0|34=11|49=Boerse|52=20170302-09:44:54.983|56=Client|10=212|
8=FIX.4.4|9=56|35=0|34=12|49=Client|52=20170302-09:44:59.980|56=Boerse|10=215|
8=FIX.4.4|9=56|35=0|34=12|49=Boerse|52=20170302-09:44:59.983|56=Client|10=218|
8=FIX.4.4|9=56|35=0|34=13|49=Client|52=20170302-09:45:04.980|56=Boerse|10=207|
8=FIX.4.4|9=56|35=0|34=13|49=Boerse|52=20170302-09:45:04.983|56=Client|10=210|
8=FIX.4.4|9=56|35=0|34=14|49=Client|52=20170302-09:45:09.980|56=Boerse|10=213|
8=FIX.4.4|9=56|35=0|34=14|49=Boerse|52=20170302-09:45:09.982|56=Client|10=215|
8=FIX.4.4|9=56|35=0|34=15|49=Client|52=20170302-09:45:14.980|56=Boerse|10=210|
8=FIX.4.4|9=56|35=0|34=15|49=Boerse|52=20170302-09:45:14.982|56=Client|10=212|
8=FIX.4.4|9=56|35=0|34=16|49=Client|52=20170302-09:45:19.980|56=Boerse|10=216|
8=FIX.4.4|9=56|35=0|34=16|49=Boerse|52=20170302-09:45:19.983|56=Client|10=219|
8=FIX.4.4|9=56|35=0|34=17|49=Client|52=20170302-09:45:24.980|56=Boerse|10=213|
8=FIX.4.4|9=56|35=0|34=17|49=Boerse|52=20170302-09:45:24.982|56=Client|10=215|
8=FIX.4.4|9=56|35=0|34=18|49=Client|52=20170302-09:45:29.980|56=Boerse|10=219|
8=FIX.4.4|9=56|35=0|34=18|49=Boerse|52=20170302-09:45:29.983|56=Client|10=222|
8=FIX.4.4|9=56|35=0|34=19|49=Client|52=20170302-09:45:34.980|56=Boerse|10=216|
8=FIX.4.4|9=56|35=0|34=19|49=Boerse|52=20170302-09:45:34.983|56=Client|10=219|
8=FIX.4.4|9=56|35=0|34=20|49=Client|52=20170302-09:45:39.980|56=Boerse|10=213|
8=FIX.4.4|9=56|35=0|34=20|49=Boerse|52=20170302-09:45:39.982|56=Client|10=215|
8=FIX.4.4|9=56|35=0|34=21|49=Client|52=20170302-09:45:44.980|56=Boerse|10=210|
8=FIX.4.4|9=56|35=0|34=21|49=Boerse|52=20170302-09:45:44.982|56=Client|10=212|
8=FIX.4.4|9=56|35=0|34=22|49=Client|52=20170302-09:45:49.980|56=Boerse|10=216|
8=FIX.4.4|9=56|35=0|34=22|49=Boerse|52=20170302-09:45:49.982|56=Client|10=218|
8=FIX.4.4|9=56|35=0|34=23|49=Client|52=20170302-09:45:54.980|56=Boerse|10=213|
8=FIX.4.4|9=56|35=0|34=23|49=Boerse|52=20170302-09:45:54.983|56=Client|10=216|
8=FIX.4.4|9=56|35=0|34=24|49=Client|52=20170302-09:45:59.980|56=Boerse|10=219|
8=FIX.4.4|9=56|35=0|34=24|49=Boerse|52=20170302-09:45:59.982|56=Client|10=221|
8=FIX.4.4|9=56|35=0|34=25|49=Client|52=20170302-09:46:04.980|56=Boerse|10=211|
8=FIX.4.4|9=56|35=0|34=25|49=Boerse|52=20170302-09:46:04.982|56=Client|10=213|
8=FIX.4.4|9=56|35=0|34=26|49=Client|52=20170302-09:46:09.980|56=Boerse|10=217|
8=FIX.4.4|9=56|35=0|34=26|49=Boerse|52=20170302-09:46:09.982|56=Client|10=219|
8=FIX.4.4|9=56|35=0|34=27|49=Client|52=20170302-09:46:14.980|56=Boerse|10=214|
8=FIX.4.4|9=56|35=0|34=27|49=Boerse|52=20170302-09:46:14.983|56=Client|10=217|
8=FIX.4.4|9=56|35=0|34=28|49=Client|52=20170302-09:46:19.980|56=Boerse|10=220|
8=FIX.4.4|9=56|35=0|34=28|49=Boerse|52=20170302-09:46:19.982|56=Client|10=222|
8=FIX.4.4|9=56|35=0|34=29|49=Client|52=20170302-09:46:24.980|56=Boerse|10=217|
8=FIX.4.4|9=56|35=0|34=29|49=Boerse|52=20170302-09:46:24.982|56=Client|10=219|
8=FIX.4.4|9=56|35=0|34=30|49=Client|52=20170302-09:46:29.980|56=Boerse|10=214|
8=FIX.4.4|9=56|35=0|34=30|49=Boerse|52=20170302-09:46:29.982|56=Client|10=216|
8=FIX.4.4|9=56|35=0|34=31|49=Client|52=20170302-09:46:34.980|56=Boerse|10=211|
8=FIX.4.4|9=56|35=0|34=31|49=Boerse|52=20170302-09:46:34.982|56=Client|10=213|
8=FIX.4.4|9=56|35=0|34=32|49=Client|52=20170302-09:46:39.980|56=Boerse|10=217|
8=FIX.4.4|9=56|35=0|34=32|49=Boerse|52=20170302-09:46:39.983|56=Client|10=220|
8=FIX.4.4|9=56|35=0|34=33|49=Client|52=20170302-09:46:44.980|56=Boerse|10=214|
8=FIX.4.4|9=56|35=0|34=33|49=Boerse|52=20170302-09:46:44.981|56=Client|10=215|
8=FIX.4.4|9=56|35=0|34=34|49=Client|52=20170302-09:46:49.980|56=Boerse|10=220|
8=FIX.4.4|9=56|35=0|34=34|49=Boerse|52=20170302-09:46:49.982|56=Client|10=222|
8=FIX.4.4|9=56|35=0|34=35|49=Client|52=20170302-09:46:54.980|56=Boerse|10=217|
8=FIX.4.4|9=56|35=0|34=35|49=Boerse|52=20170302-09:46:54.982|56=Client|10=219|
8=FIX.4.4|9=56|35=0|34=36|49=Client|52=20170302-09:46:59.979|56=Boerse|10=231|
8=FIX.4.4|9=56|35=0|34=36|49=Boerse|52=20170302-09:46:59.982|56=Client|10=225|
8=FIX.4.4|9=56|35=0|34=37|49=Client|52=20170302-09:47:04.980|56=Boerse|10=215|
8=FIX.4.4|9=56|35=0|34=37|49=Boerse|52=20170302-09:47:04.982|56=Client|10=217|
8=FIX.4.4|9=56|35=0|34=38|49=Client|52=20170302-09:47:09.980|56=Boerse|10=221|
8=FIX.4.4|9=56|35=0|34=38|49=Boerse|52=20170302-09:47:09.982|56=Client|10=223|
8=FIX.4.4|9=56|35=0|34=39|49=Client|52=20170302-09:47:14.979|56=Boerse|10=226|
8=FIX.4.4|9=56|35=0|34=39|49=Boerse|52=20170302-09:47:14.983|56=Client|10=221|
8=FIX.4.4|9=56|35=0|34=40|49=Client|52=20170302-09:47:19.979|56=Boerse|10=223|
8=FIX.4.4|9=56|35=0|34=40|49=Boerse|52=20170302-09:47:19.981|56=Client|10=216|
8=FIX.4.4|9=56|35=0|34=41|49=Client|52=20170302-09:47:24.980|56=Boerse|10=212|
8=FIX.4.4|9=56|35=0|34=41|49=Boerse|52=20170302-09:47:24.982|56=Client|10=214|
8=FIX.4.4|9=56|35=0|34=42|49=Client|52=20170302-09:47:29.980|56=Boerse|10=218|
8=FIX.4.4|9=56|35=0|34=42|49=Boerse|52=20170302-09:47:29.982|56=Client|10=220|
8=FIX.4.4|9=56|35=0|34=43|49=Client|52=20170302-09:47:34.980|56=Boerse|10=215|
8=FIX.4.4|9=56|35=0|34=43|49=Boerse|52=20170302-09:47:34.983|56=Client|10=218|
8=FIX.4.4|9=56|35=0|34=44|49=Client|52=20170302-09:47:39.979|56=Boerse|10=229|
8=FIX.4.4|9=56|35=0|34=44|49=Boerse|52=20170302-09:47:39.981|56=Client|10=222|
8=FIX.4.4|9=56|35=0|34=45|49=Client|52=20170302-09:47:44.980|56=Boerse|10=218|
8=FIX.4.4|9=56|35=0|34=45|49=Boerse|52=20170302-09:47:44.982|56=Client|10=220|
8=FIX.4.4|9=56|35=0|34=46|49=Client|52=20170302-09:47:49.980|56=Boerse|10=224|
8=FIX.4.4|9=56|35=0|34=46|49=Boerse|52=20170302-09:47:49.981|56=Client|10=225|
8=FIX.4.4|9=56|35=0|34=47|49=Client|52=20170302-09:47:54.979|56=Boerse|10=229|
8=FIX.4.4|9=56|35=0|34=47|49=Boerse|52=20170302-09:47:54.981|56=Client|10=222|
8=FIX.4.4|9=56|35=0|34=48|49=Client|52=20170302-09:47:59.979|56=Boerse|10=235|
8=FIX.4.4|9=56|35=0|34=48|49=Boerse|52=20170302-09:47:59.981|56=Client|10=228|
8=FIX.4.4|9=56|35=0|34=49|49=Client|52=20170302-09:48:04.980|56=Boerse|10=219|
8=FIX.4.4|9=56|35=0|34=49|49=Boerse|52=20170302-09:48:04.982|56=Client|10=221|
8=FIX.4.4|9=56|35=0|34=50|49=Client|52=20170302-09:48:09.979|56=Boerse|10=224|
8=FIX.4.4|9=56|35=0|34=50|49=Boerse|52=20170302-09:48:09.982|56=Client|10=218|
8=FIX.4.4|9=56|35=0|34=51|49=Client|52=20170302-09:48:14.979|56=Boerse|10=221|
8=FIX.4.4|9=56|35=0|34=51|49=Boerse|52=20170302-09:48:14.982|56=Client|10=215|
8=FIX.4.4|9=56|35=0|34=52|49=Client|52=20170302-09:48:19.979|56=Boerse|10=227|
8=FIX.4.4|9=56|35=0|34=52|49=Boerse|52=20170302-09:48:19.982|56=Client|10=221|
8=FIX.4.4|9=56|35=0|34=53|49=Client|52=20170302-09:48:24.979|56=Boerse|10=224|
8=FIX.4.4|9=56|35=0|34=53|49=Boerse|52=20170302-09:48:24.982|56=Client|10=218|
8=FIX.4.4|9=56|35=0|34=54|49=Client|52=20170302-09:48:29.979|56=Boerse|10=230|
8=FIX.4.4|9=56|35=0|34=54|49=Boerse|52=20170302-09:48:29.982|56=Client|10=224|
8=FIX.4.4|9=56|35=0|34=55|49=Client|52=20170302-09:48:34.980|56=Boerse|10=219|
8=FIX.4.4|9=56|35=0|34=55|49=Boerse|52=20170302-09:48:34.982|56=Client|10=221|
8=FIX.4.4|9=56|35=0|34=56|49=Client|52=20170302-09:48:39.979|56=Boerse|10=233|
8=FIX.4.4|9=56|35=0|34=56|49=Boerse|52=20170302-09:48:39.982|56=Client|10=227|
8=FIX.4.4|9=56|35=0|34=57|49=Client|52=20170302-09:48:44.979|56=Boerse|10=230|
8=FIX.4.4|9=56|35=0|34=57|49=Boerse|52=20170302-09:48:44.982|56=Client|10=224|
8=FIX.4.4|9=56|35=0|34=58|49=Client|52=20170302-09:48:49.979|56=Boerse|10=236|
8=FIX.4.4|9=56|35=0|34=58|49=Boerse|52=20170302-09:48:49.982|56=Client|10=230|
8=FIX.4.4|9=56|35=0|34=59|49=Client|52=20170302-09:48:54.979|56=Boerse|10=233|
8=FIX.4.4|9=56|35=0|34=59|49=Boerse|52=20170302-09:48:54.982|56=Client|10=227|
8=FIX.4.4|9=56|35=0|34=60|49=Client|52=20170302-09:48:59.979|56=Boerse|10=230|
8=FIX.4.4|9=56|35=0|34=60|49=Boerse|52=20170302-09:48:59.982|56=Client|10=224|
8=FIX.4.4|9=56|35=0|34=61|49=Client|52=20170302-09:49:04.979|56=Boerse|10=222|
8=FIX.4.4|9=56|35=0|34=61|49=Boerse|52=20170302-09:49:04.982|56=Client|10=216|
8=FIX.4.4|9=56|35=0|34=62|49=Client|52=20170302-09:49:09.979|56=Boerse|10=228|
8=FIX.4.4|9=56|35=0|34=62|49=Boerse|52=20170302-09:49:09.982|56=Client|10=222|
8=FIX.4.4|9=56|35=0|34=63|49=Client|52=20170302-09:49:14.980|56=Boerse|10=217|
8=FIX.4.4|9=56|35=0|34=63|49=Boerse|52=20170302-09:49:14.982|56=Client|10=219|
8=FIX.4.4|9=56|35=0|34=64|49=Client|52=20170302-09:49:19.979|56=Boerse|10=231|
8=FIX.4.4|9=56|35=0|34=64|49=Boerse|52=20170302-09:49:19.981|56=Client|10=224|
8=FIX.4.4|9=56|35=0|34=65|49=Client|52=20170302-09:49:24.979|56=Boerse|10=228|
8=FIX.4.4|9=56|35=0|34=65|49=Boerse|52=20170302-09:49:24.982|56=Client|10=222|
8=FIX.4.4|9=56|35=0|34=66|49=Client|52=20170302-09:49:29.979|56=Boerse|10=234|
8=FIX.4.4|9=56|35=0|34=66|49=Boerse|52=20170302-09:49:29.982|56=Client|10=228|
8=FIX.4.4|9=56|35=0|34=67|49=Client|52=20170302-09:49:34.979|56=Boerse|10=231|
8=FIX.4.4|9=56|35=0|34=67|49=Boerse|52=20170302-09:49:34.982|56=Client|10=225|
8=FIX.4.4|9=56|35=0|34=68|49=Client|52=20170302-09:49:39.979|56=Boerse|10=237|
8=FIX.4.4|9=56|35=0|34=68|49=Boerse|52=20170302-09:49:39.980|56=Client|10=229|
8=FIX.4.4|9=56|35=0|34=69|49=Client|52=20170302-09:49:44.979|56=Boerse|10=234|
8=FIX.4.4|9=56|35=0|34=69|49=Boerse|52=20170302-09:49:44.982|56=Client|10=228|
8=FIX.4.4|9=56|35=0|34=70|49=Client|52=20170302-09:49:49.979|56=Boerse|10=231|
8=FIX.4.4|9=56|35=0|34=70|49=Boerse|52=20170302-09:49:49.982|56=Client|10=225|
8=FIX.4.4|9=56|35=0|34=71|49=Client|52=20170302-09:49:54.979|56=Boerse|10=228|
8=FIX.4.4|9=56|35=0|34=71|49=Boerse|52=20170302-09:49:54.981|56=Client|10=221|
8=FIX.4.4|9=56|35=0|34=72|49=Client|52=20170302-09:49:59.980|56=Boerse|10=226|
8=FIX.4.4|9=56|35=0|34=72|49=Boerse|52=20170302-09:49:59.981|56=Client|10=227|
8=FIX.4.4|9=56|35=0|34=73|49=Client|52=20170302-09:50:04.979|56=Boerse|10=217|
8=FIX.4.4|9=56|35=0|34=73|49=Boerse|52=20170302-09:50:04.981|56=Client|10=210|
8=FIX.4.4|9=56|35=0|34=74|49=Client|52=20170302-09:50:09.979|56=Boerse|10=223|
8=FIX.4.4|9=56|35=0|34=74|49=Boerse|52=20170302-09:50:09.982|56=Client|10=217|
8=FIX.4.4|9=56|35=0|34=75|49=Client|52=20170302-09:50:14.979|56=Boerse|10=220|
8=FIX.4.4|9=56|35=0|34=75|49=Boerse|52=20170302-09:50:14.982|56=Client|10=214|
8=FIX.4.4|9=56|35=0|34=76|49=Client|52=20170302-09:50:19.979|56=Boerse|10=226|
8=FIX.4.4|9=56|35=0|34=76|49=Boerse|52=20170302-09:50:19.981|56=Client|10=219|
8=FIX.4.4|9=56|35=0|34=77|49=Client|52=20170302-09:50:24.979|56=Boerse|10=223|
8=FIX.4.4|9=56|35=0|34=77|49=Boerse|52=20170302-09:50:24.981|56=Client|10=216|
8=FIX.4.4|9=56|35=0|34=78|49=Client|52=20170302-09:50:29.979|56=Boerse|10=229|
8=FIX.4.4|9=56|35=0|34=78|49=Boerse|52=20170302-09:50:29.982|56=Client|10=223|
8=FIX.4.4|9=56|35=0|34=79|49=Client|52=20170302-09:50:34.979|56=Boerse|10=226|
8=FIX.4.4|9=56|35=0|34=79|49=Boerse|52=20170302-09:50:34.981|56=Client|10=219|
8=FIX.4.4|9=56|35=0|34=80|49=Client|52=20170302-09:50:39.979|56=Boerse|10=223|
8=FIX.4.4|9=56|35=0|34=80|49=Boerse|52=20170302-09:50:39.981|56=Client|10=216|
8=FIX.4.4|9=56|35=0|34=81|49=Client|52=20170302-09:50:44.979|56=Boerse|10=220|
8=FIX.4.4|9=56|35=0|34=81|49=Boerse|52=20170302-09:50:44.981|56=Client|10=213|
8=FIX.4.4|9=56|35=0|34=82|49=Client|52=20170302-09:50:49.979|56=Boerse|10=226|
8=FIX.4.4|9=56|35=0|34=82|49=Boerse|52=20170302-09:50:49.981|56=Client|10=219|
8=FIX.4.4|9=56|35=0|34=83|49=Client|52=20170302-09:50:54.979|56=Boerse|10=223|
8=FIX.4.4|9=56|35=0|34=83|49=Boerse|52=20170302-09:50:54.982|56=Client|10=217|
8=FIX.4.4|9=56|35=0|34=84|49=Client|52=20170302-09:50:59.979|56=Boerse|10=229|
8=FIX.4.4|9=56|35=0|34=84|49=Boerse|52=20170302-09:50:59.982|56=Client|10=223|
8=FIX.4.4|9=56|35=0|34=85|49=Client|52=20170302-09:51:04.979|56=Boerse|10=221|
8=FIX.4.4|9=56|35=0|34=85|49=Boerse|52=20170302-09:51:04.981|56=Client|10=214|
8=FIX.4.4|9=56|35=0|34=86|49=Client|52=20170302-09:51:09.980|56=Boerse|10=219|
8=FIX.4.4|9=56|35=0|34=86|49=Boerse|52=20170302-09:51:09.982|56=Client|10=221|
8=FIX.4.4|9=56|35=0|34=87|49=Client|52=20170302-09:51:14.979|56=Boerse|10=224|
8=FIX.4.4|9=56|35=0|34=87|49=Boerse|52=20170302-09:51:14.982|56=Client|10=218|
8=FIX.4.4|9=56|35=0|34=88|49=Client|52=20170302-09:51:19.980|56=Boerse|10=222|
8=FIX.4.4|9=56|35=0|34=88|49=Boerse|52=20170302-09:51:19.981|56=Client|10=223|
8=FIX.4.4|9=56|35=0|34=89|49=Client|52=20170302-09:51:24.979|56=Boerse|10=227|
8=FIX.4.4|9=56|35=0|34=89|49=Boerse|52=20170302-09:51:24.981|56=Client|10=220|
8=FIX.4.4|9=56|35=0|34=90|49=Client|52=20170302-09:51:29.979|56=Boerse|10=224|
8=FIX.4.4|9=56|35=0|34=90|49=Boerse|52=20170302-09:51:29.981|56=Client|10=217|
8=FIX.4.4|9=56|35=0|34=91|49=Client|52=20170302-09:51:34.979|56=Boerse|10=221|
8=FIX.4.4|9=56|35=0|34=91|49=Boerse|52=20170302-09:51:34.981|56=Client|10=214|
8=FIX.4.4|9=56|35=0|34=92|49=Client|52=20170302-09:51:39.979|56=Boerse|10=227|
8=FIX.4.4|9=56|35=0|34=92|49=Boerse|52=20170302-09:51:39.981|56=Client|10=220|
8=FIX.4.4|9=56|35=0|34=93|49=Client|52=20170302-09:51:44.979|56=Boerse|10=224|
8=FIX.4.4|9=56|35=0|34=93|49=Boerse|52=20170302-09:51:44.982|56=Client|10=218|
8=FIX.4.4|9=56|35=0|34=94|49=Client|52=20170302-09:51:49.979|56=Boerse|10=230|
8=FIX.4.4|9=56|35=0|34=94|49=Boerse|52=20170302-09:51:49.981|56=Client|10=223|
8=FIX.4.4|9=56|35=0|34=95|49=Client|52=20170302-09:51:54.979|56=Boerse|10=227|
8=FIX.4.4|9=56|35=0|34=95|49=Boerse|52=20170302-09:51:54.981|56=Client|10=220|
8=FIX.4.4|9=56|35=0|34=96|49=Client|52=20170302-09:51:59.979|56=Boerse|10=233|
8=FIX.4.4|9=56|35=0|34=96|49=Boerse|52=20170302-09:51:59.981|56=Client|10=226|
8=FIX.4.4|9=56|35=0|34=97|49=Client|52=20170302-09:52:04.979|56=Boerse|10=225|
8=FIX.4.4|9=56|35=0|34=97|49=Boerse|52=20170302-09:52:04.981|56=Client|10=218|
8=FIX.4.4|9=56|35=0|34=98|49=Client|52=20170302-09:52:09.979|56=Boerse|10=231|
8=FIX.4.4|9=56|35=0|34=98|49=Boerse|52=20170302-09:52:09.981|56=Client|10=224|
8=FIX.4.4|9=56|35=0|34=99|49=Client|52=20170302-09:52:14.979|56=Boerse|10=228|
8=FIX.4.4|9=56|35=0|34=99|49=Boerse|52=20170302-09:52:14.981|56=Client|10=221|
8=FIX.4.4|9=57|35=0|34=100|49=Client|52=20170302-09:52:19.979|56=Boerse|10=009|
8=FIX.4.4|9=57|35=0|34=100|49=Boerse|52=20170302-09:52:19.981|56=Client|10=002|
8=FIX.4.4|9=57|35=0|34=101|49=Client|52=20170302-09:52:24.980|56=Boerse|10=254|
8=FIX.4.4|9=57|35=0|34=101|49=Boerse|52=20170302-09:52:24.981|56=Client|10=255|
8=FIX.4.4|9=57|35=0|34=102|49=Client|52=20170302-09:52:29.979|56=Boerse|10=012|
8=FIX.4.4|9=57|35=0|34=102|49=Boerse|52=20170302-09:52:29.982|56=Client|10=006|
8=FIX.4.4|9=57|35=0|34=103|49=Client|52=20170302-09:52:34.980|56=Boerse|10=001|
8=FIX.4.4|9=57|35=0|34=103|49=Boerse|52=20170302-09:52:34.981|56=Client|10=002|
8=FIX.4.4|9=57|35=0|34=104|49=Client|52=20170302-09:52:39.979|56=Boerse|10=015|
8=FIX.4.4|9=57|35=0|34=104|49=Boerse|52=20170302-09:52:39.981|56=Client|10=008|
8=FIX.4.4|9=57|35=0|34=105|49=Client|52=20170302-09:52:44.979|56=Boerse|10=012|
8=FIX.4.4|9=57|35=0|34=105|49=Boerse|52=20170302-09:52:44.981|56=Client|10=005|
8=FIX.4.4|9=57|35=0|34=106|49=Client|52=20170302-09:52:49.979|56=Boerse|10=018|
8=FIX.4.4|9=57|35=0|34=106|49=Boerse|52=20170302-09:52:49.981|56=Client|10=011|
8=FIX.4.4|9=57|35=0|34=107|49=Client|52=20170302-09:52:54.979|56=Boerse|10=015|
8=FIX.4.4|9=57|35=0|34=107|49=Boerse|52=20170302-09:52:54.981|56=Client|10=008|
8=FIX.4.4|9=57|35=0|34=108|49=Client|52=20170302-09:52:59.979|56=Boerse|10=021|
8=FIX.4.4|9=57|35=0|34=108|49=Boerse|52=20170302-09:52:59.981|56=Client|10=014|
8=FIX.4.4|9=57|35=0|34=109|49=Client|52=20170302-09:53:04.980|56=Boerse|10=005|
8=FIX.4.4|9=57|35=0|34=109|49=Boerse|52=20170302-09:53:04.982|56=Client|10=007|
8=FIX.4.4|9=57|35=0|34=110|49=Client|52=20170302-09:53:09.979|56=Boerse|10=010|
8=FIX.4.4|9=57|35=0|34=110|49=Boerse|52=20170302-09:53:09.981|56=Client|10=003|
8=FIX.4.4|9=57|35=0|34=111|49=Client|52=20170302-09:53:14.979|56=Boerse|10=007|
8=FIX.4.4|9=57|35=0|34=111|49=Boerse|52=20170302-09:53:14.981|56=Client|10=000|
8=FIX.4.4|9=57|35=0|34=112|49=Client|52=20170302-09:53:19.979|56=Boerse|10=013|
8=FIX.4.4|9=57|35=0|34=112|49=Boerse|52=20170302-09:53:19.981|56=Client|10=006|
8=FIX.4.4|9=57|35=0|34=113|49=Client|52=20170302-09:53:24.979|56=Boerse|10=010|
8=FIX.4.4|9=57|35=0|34=113|49=Boerse|52=20170302-09:53:24.981|56=Client|10=003|
8=FIX.4.4|9=57|35=0|34=114|49=Client|52=20170302-09:53:29.979|56=Boerse|10=016|
8=FIX.4.4|9=57|35=0|34=114|49=Boerse|52=20170302-09:53:29.981|56=Client|10=009|
8=FIX.4.4|9=57|35=0|34=115|49=Client|52=20170302-09:53:34.979|56=Boerse|10=013|
8=FIX.4.4|9=57|35=0|34=115|49=Boerse|52=20170302-09:53:34.981|56=Client|10=006|
8=FIX.4.4|9=57|35=0|34=116|49=Client|52=20170302-09:53:39.979|56=Boerse|10=019|
8=FIX.4.4|9=57|35=0|34=116|49=Boerse|52=20170302-09:53:39.982|56=Client|10=013|
8=FIX.4.4|9=57|35=0|34=117|49=Client|52=20170302-09:53:44.979|56=Boerse|10=016|
8=FIX.4.4|9=57|35=0|34=117|49=Boerse|52=20170302-09:53:44.982|56=Client|10=010|
8=FIX.4.4|9=57|35=0|34=118|49=Client|52=20170302-09:53:49.979|56=Boerse|10=022|
8=FIX.4.4|9=57|35=0|34=118|49=Boerse|52=20170302-09:53:49.981|56=Client|10=015|
8=FIX.4.4|9=57|35=0|34=119|49=Client|52=20170302-09:53:54.979|56=Boerse|10=019|
8=FIX.4.4|9=57|35=0|34=119|49=Boerse|52=20170302-09:53:54.981|56=Client|10=012|
8=FIX.4.4|9=57|35=0|34=120|49=Client|52=20170302-09:53:59.979|56=Boerse|10=016|
8=FIX.4.4|9=57|35=0|34=120|49=Boerse|52=20170302-09:53:59.981|56=Client|10=009|
8=FIX.4.4|9=57|35=0|34=121|49=Client|52=20170302-09:54:04.980|56=Boerse|10=000|
8=FIX.4.4|9=57|35=0|34=121|49=Boerse|52=20170302-09:54:04.983|56=Client|10=003|
8=FIX.4.4|9=57|35=0|34=122|49=Client|52=20170302-09:54:09.979|56=Boerse|10=014|
8=FIX.4.4|9=57|35=0|34=122|49=Boerse|52=20170302-09:54:09.982|56=Client|10=008|
8=FIX.4.4|9=57|35=0|34=123|49=Client|52=20170302-09:54:14.979|56=Boerse|10=011|
8=FIX.4.4|9=57|35=0|34=123|49=Boerse|52=20170302-09:54:14.981|56=Client|10=004|
8=FIX.4.4|9=57|35=0|34=124|49=Client|52=20170302-09:54:19.979|56=Boerse|10=017|
8=FIX.4.4|9=57|35=0|34=124|49=Boerse|52=20170302-09:54:19.981|56=Client|10=010|
8=FIX.4.4|9=57|35=0|34=125|49=Client|52=20170302-09:54:24.979|56=Boerse|10=014|
8=FIX.4.4|9=57|35=0|34=125|49=Boerse|52=20170302-09:54:24.982|56=Client|10=008|
8=FIX.4.4|9=57|35=0|34=126|49=Client|52=20170302-09:54:29.979|56=Boerse|10=020|
8=FIX.4.4|9=57|35=0|34=126|49=Boerse|52=20170302-09:54:29.982|56=Client|10=014|
8=FIX.4.4|9=57|35=0|34=127|49=Client|52=20170302-09:54:34.980|56=Boerse|10=009|
8=FIX.4.4|9=57|35=0|34=127|49=Boerse|52=20170302-09:54:34.982|56=Client|10=011|
8=FIX.4.4|9=57|35=0|34=128|49=Client|52=20170302-09:54:39.979|56=Boerse|10=023|
8=FIX.4.4|9=57|35=0|34=128|49=Boerse|52=20170302-09:54:39.983|56=Client|10=018|
8=FIX.4.4|9=57|35=0|34=129|49=Client|52=20170302-09:54:44.979|56=Boerse|10=020|
8=FIX.4.4|9=57|35=0|34=129|49=Boerse|52=20170302-09:54:44.982|56=Client|10=014|
8=FIX.4.4|9=57|35=0|34=130|49=Client|52=20170302-09:54:49.979|56=Boerse|10=017|
8=FIX.4.4|9=57|35=0|34=130|49=Boerse|52=20170302-09:54:49.980|56=Client|10=009|
8=FIX.4.4|9=57|35=0|34=131|49=Client|52=20170302-09:54:54.979|56=Boerse|10=014|
8=FIX.4.4|9=57|35=0|34=131|49=Boerse|52=20170302-09:54:54.982|56=Client|10=008|
8=FIX.4.4|9=57|35=0|34=132|49=Client|52=20170302-09:54:59.979|56=Boerse|10=020|
8=FIX.4.4|9=57|35=0|34=132|49=Boerse|52=20170302-09:54:59.982|56=Client|10=014|
8=FIX.4.4|9=57|35=0|34=133|49=Client|52=20170302-09:55:04.979|56=Boerse|10=012|
8=FIX.4.4|9=57|35=0|34=133|49=Boerse|52=20170302-09:55:04.981|56=Client|10=005|
8=FIX.4.4|9=57|35=0|34=134|49=Client|52=20170302-09:55:09.979|56=Boerse|10=018|
8=FIX.4.4|9=57|35=0|34=134|49=Boerse|52=20170302-09:55:09.981|56=Client|10=011|
8=FIX.4.4|9=57|35=0|34=135|49=Client|52=20170302-09:55:14.979|56=Boerse|10=015|
8=FIX.4.4|9=57|35=0|34=135|49=Boerse|52=20170302-09:55:14.982|56=Client|10=009|
8=FIX.4.4|9=57|35=0|34=136|49=Client|52=20170302-09:55:19.979|56=Boerse|10=021|
8=FIX.4.4|9=57|35=0|34=136|49=Boerse|52=20170302-09:55:19.980|56=Client|10=013|
8=FIX.4.4|9=57|35=0|34=137|49=Client|52=20170302-09:55:24.979|56=Boerse|10=018|
8=FIX.4.4|9=57|35=0|34=137|49=Boerse|52=20170302-09:55:24.981|56=Client|10=011|
8=FIX.4.4|9=57|35=0|34=138|49=Client|52=20170302-09:55:29.979|56=Boerse|10=024|
8=FIX.4.4|9=57|35=0|34=138|49=Boerse|52=20170302-09:55:29.981|56=Client|10=017|
8=FIX.4.4|9=57|35=0|34=139|49=Client|52=20170302-09:55:34.979|56=Boerse|10=021|
8=FIX.4.4|9=57|35=0|34=139|49=Boerse|52=20170302-09:55:34.981|56=Client|10=014|
8=FIX.4.4|9=57|35=0|34=140|49=Client|52=20170302-09:55:39.979|56=Boerse|10=018|
8=FIX.4.4|9=57|35=0|34=140|49=Boerse|52=20170302-09:55:39.981|56=Client|10=011|
8=FIX.4.4|9=57|35=0|34=141|49=Client|52=20170302-09:55:44.979|56=Boerse|10=015|
8=FIX.4.4|9=57|35=0|34=141|49=Boerse|52=20170302-09:55:44.981|56=Client|10=008|
8=FIX.4.4|9=57|35=0|34=142|49=Client|52=20170302-09:55:49.979|56=Boerse|10=021|
8=FIX.4.4|9=57|35=0|34=142|49=Boerse|52=20170302-09:55:49.981|56=Client|10=014|
8=FIX.4.4|9=57|35=0|34=143|49=Client|52=20170302-09:55:54.979|56=Boerse|10=018|
8=FIX.4.4|9=57|35=0|34=143|49=Boerse|52=20170302-09:55:54.981|56=Client|10=011|
8=FIX.4.4|9=57|35=0|34=144|49=Client|52=20170302-09:55:59.979|56=Boerse|10=024|
8=FIX.4.4|9=57|35=0|34=144|49=Boerse|52=20170302-09:55:59.980|56=Client|10=016|
8=FIX.4.4|9=57|35=0|34=145|49=Client|52=20170302-09:56:04.979|56=Boerse|10=016|
8=FIX.4.4|9=57|35=0|34=145|49=Boerse|52=20170302-09:56:04.981|56=Client|10=009|
8=FIX.4.4|9=57|35=0|34=146|49=Client|52=20170302-09:56:09.979|56=Boerse|10=022|
8=FIX.4.4|9=57|35=0|34=146|49=Boerse|52=20170302-09:56:09.981|56=Client|10=015|
8=FIX.4.4|9=57|35=0|34=147|49=Client|52=20170302-09:56:14.979|56=Boerse|10=019|
8=FIX.4.4|9=57|35=0|34=147|49=Boerse|52=20170302-09:56:14.981|56=Client|10=012|
8=FIX.4.4|9=57|35=0|34=148|49=Client|52=20170302-09:56:19.979|56=Boerse|10=025|
8=FIX.4.4|9=57|35=0|34=148|49=Boerse|52=20170302-09:56:19.980|56=Client|10=017|
8=FIX.4.4|9=57|35=0|34=149|49=Client|52=20170302-09:56:24.979|56=Boerse|10=022|
8=FIX.4.4|9=57|35=0|34=149|49=Boerse|52=20170302-09:56:24.981|56=Client|10=015|
8=FIX.4.4|9=57|35=0|34=150|49=Client|52=20170302-09:56:29.979|56=Boerse|10=019|
8=FIX.4.4|9=57|35=0|34=150|49=Boerse|52=20170302-09:56:29.980|56=Client|10=011|
8=FIX.4.4|9=57|35=0|34=151|49=Client|52=20170302-09:56:34.979|56=Boerse|10=016|
8=FIX.4.4|9=57|35=0|34=151|49=Boerse|52=20170302-09:56:34.981|56=Client|10=009|
8=FIX.4.4|9=57|35=0|34=152|49=Client|52=20170302-09:56:39.979|56=Boerse|10=022|
8=FIX.4.4|9=57|35=0|34=152|49=Boerse|52=20170302-09:56:39.981|56=Client|10=015|
8=FIX.4.4|9=57|35=0|34=153|49=Client|52=20170302-09:56:44.979|56=Boerse|10=019|
8=FIX.4.4|9=57|35=0|34=153|49=Boerse|52=20170302-09:56:44.981|56=Client|10=012|
8=FIX.4.4|9=68|35=A|34=1|49=Client|52=20170302-09:59:55.495|56=Boerse|108=30|141=Y|10=035|
8=FIX.4.4|9=66|35=A|34=2|49=Client|52=20170302-09:59:56.471|56=Boerse|98=0|108=5|10=161|
8=FIX.4.4|9=108|35=5|34=154|49=Boerse|52=20170302-09:59:56.505|56=Client|58=MsgSeqNum too low, expecting 154 but received 2|10=061|
8=FIX.4.4|9=55|35=5|34=3|49=Client|52=20170302-09:59:56.525|56=Boerse|10=169|
8=FIX.4.4|9=66|35=A|34=4|49=Client|52=20170302-10:00:26.472|56=Boerse|98=0|108=5|10=139|
8=FIX.4.4|9=108|35=5|34=155|49=Boerse|52=20170302-10:00:26.478|56=Client|58=MsgSeqNum too low, expecting 154 but received 4|10=048|
8=FIX.4.4|9=55|35=5|34=5|49=Client|52=20170302-10:00:26.482|56=Boerse|10=148|
8=FIX.4.4|9=66|35=A|34=6|49=Client|52=20170302-10:00:56.471|56=Boerse|98=0|108=5|10=143|
8=FIX.4.4|9=108|35=5|34=156|49=Boerse|52=20170302-10:00:56.477|56=Client|58=MsgSeqNum too low, expecting 154 but received 6|10=053|
8=FIX.4.4|9=55|35=5|34=7|49=Client|52=20170302-10:00:56.482|56=Boerse|10=153|
8=FIX.4.4|9=66|35=A|34=8|49=Client|52=20170302-10:01:26.471|56=Boerse|98=0|108=5|10=143|
8=FIX.4.4|9=108|35=5|34=157|49=Boerse|52=20170302-10:01:26.476|56=Client|58=MsgSeqNum too low, expecting 154 but received 8|10=053|
8=FIX.4.4|9=55|35=5|34=9|49=Client|52=20170302-10:01:26.480|56=Boerse|10=151|
8=FIX.4.4|9=68|35=A|34=1|49=Client|52=20170302-10:01:40.430|56=Boerse|108=30|141=Y|10=253|
8=FIX.4.4|9=66|35=A|34=2|49=Client|52=20170302-10:01:41.406|56=Boerse|98=0|108=5|10=132|
8=FIX.4.4|9=108|35=5|34=158|49=Boerse|52=20170302-10:01:41.415|56=Client|58=MsgSeqNum too low, expecting 154 but received 2|10=038|
8=FIX.4.4|9=55|35=5|34=3|49=Client|52=20170302-10:01:41.433|56=Boerse|10=140|
8=FIX.4.4|9=66|35=A|34=4|49=Client|52=20170302-10:02:11.405|56=Boerse|98=0|108=5|10=131|
8=FIX.4.4|9=108|35=5|34=159|49=Boerse|52=20170302-10:02:11.409|56=Client|58=MsgSeqNum too low, expecting 154 but received 4|10=042|
8=FIX.4.4|9=55|35=5|34=5|49=Client|52=20170302-10:02:11.413|56=Boerse|10=138|
8=FIX.4.4|9=68|35=A|34=1|49=Client|52=20170302-10:04:21.196|56=Boerse|108=30|141=Y|10=008|
8=FIX.4.4|9=66|35=A|34=2|49=Client|52=20170302-10:04:22.181|56=Boerse|98=0|108=5|10=134|
8=FIX.4.4|9=66|35=A|34=1|49=Boerse|52=20170302-10:04:22.222|56=Client|98=0|108=5|10=129|
8=FIX.4.4|9=64|35=2|34=2|49=Boerse|52=20170302-10:04:22.227|56=Client|7=1|16=0|10=006|
8=FIX.4.4|9=97|35=4|34=1|43=Y|49=Client|52=20170302-10:04:22.244|56=Boerse|122=20170302-10:04:22.244|36=3|123=Y|10=138|
8=FIX.4.4|9=55|35=0|34=3|49=Client|52=20170302-10:04:28.183|56=Boerse|10=145|
8=FIX.4.4|9=55|35=0|34=3|49=Boerse|52=20170302-10:04:28.187|56=Client|10=149|
8=FIX.4.4|9=55|35=0|34=4|49=Client|52=20170302-10:04:33.182|56=Boerse|10=141|
8=FIX.4.4|9=55|35=0|34=4|49=Boerse|52=20170302-10:04:33.186|56=Client|10=145|
8=FIX.4.4|9=55|35=0|34=5|49=Client|52=20170302-10:04:38.181|56=Boerse|10=146|
8=FIX.4.4|9=55|35=0|34=5|49=Boerse|52=20170302-10:04:38.186|56=Client|10=151|
8=FIX.4.4|9=55|35=0|34=6|49=Client|52=20170302-10:04:43.181|56=Boerse|10=143|
8=FIX.4.4|9=55|35=0|34=6|49=Boerse|52=20170302-10:04:43.184|56=Client|10=146|
8=FIX.4.4|9=55|35=0|34=7|49=Client|52=20170302-10:04:48.181|56=Boerse|10=149|
8=FIX.4.4|9=55|35=0|34=7|49=Boerse|52=20170302-10:04:48.183|56=Client|10=151|
8=FIX.4.4|9=55|35=0|34=8|49=Client|52=20170302-10:04:53.181|56=Boerse|10=146|
8=FIX.4.4|9=55|35=0|34=8|49=Boerse|52=20170302-10:04:53.185|56=Client|10=150|
8=FIX.4.4|9=55|35=0|34=9|49=Client|52=20170302-10:04:58.181|56=Boerse|10=152|
8=FIX.4.4|9=55|35=0|34=9|49=Boerse|52=20170302-10:04:58.186|56=Client|10=157|
8=FIX.4.4|9=56|35=0|34=10|49=Client|52=20170302-10:05:03.181|56=Boerse|10=184|
8=FIX.4.4|9=56|35=0|34=10|49=Boerse|52=20170302-10:05:03.184|56=Client|10=187|
8=FIX.4.4|9=56|35=0|34=11|49=Client|52=20170302-10:05:08.181|56=Boerse|10=190|
8=FIX.4.4|9=56|35=0|34=11|49=Boerse|52=20170302-10:05:08.184|56=Client|10=193|
8=FIX.4.4|9=56|35=0|34=12|49=Client|52=20170302-10:05:13.181|56=Boerse|10=187|
8=FIX.4.4|9=56|35=0|34=12|49=Boerse|52=20170302-10:05:13.184|56=Client|10=190|
8=FIX.4.4|9=56|35=0|34=13|49=Client|52=20170302-10:05:18.181|56=Boerse|10=193|
8=FIX.4.4|9=56|35=0|34=13|49=Boerse|52=20170302-10:05:18.184|56=Client|10=196|
8=FIX.4.4|9=56|35=0|34=14|49=Client|52=20170302-10:05:23.181|56=Boerse|10=190|
8=FIX.4.4|9=56|35=0|34=14|49=Boerse|52=20170302-10:05:23.184|56=Client|10=193|
8=FIX.4.4|9=56|35=0|34=15|49=Client|52=20170302-10:05:28.181|56=Boerse|10=196|
8=FIX.4.4|9=56|35=0|34=15|49=Boerse|52=20170302-10:05:28.184|56=Client|10=199|
8=FIX.4.4|9=56|35=0|34=16|49=Client|52=20170302-10:05:33.181|56=Boerse|10=193|
8=FIX.4.4|9=56|35=0|34=16|49=Boerse|52=20170302-10:05:33.184|56=Client|10=196|
8=FIX.4.4|9=56|35=0|34=17|49=Client|52=20170302-10:05:38.181|56=Boerse|10=199|
8=FIX.4.4|9=56|35=0|34=17|49=Boerse|52=20170302-10:05:38.184|56=Client|10=202|
8=FIX.4.4|9=56|35=0|34=18|49=Client|52=20170302-10:05:43.181|56=Boerse|10=196|
8=FIX.4.4|9=56|35=0|34=18|49=Boerse|52=20170302-10:05:43.183|56=Client|10=198|
8=FIX.4.4|9=56|35=0|34=19|49=Client|52=20170302-10:05:48.181|56=Boerse|10=202|
8=FIX.4.4|9=56|35=0|34=19|49=Boerse|52=20170302-10:05:48.184|56=Client|10=205|
8=FIX.4.4|9=56|35=0|34=20|49=Client|52=20170302-10:05:53.181|56=Boerse|10=190|
8=FIX.4.4|9=56|35=0|34=20|49=Boerse|52=20170302-10:05:53.184|56=Client|10=193|
8=FIX.4.4|9=56|35=0|34=21|49=Client|52=20170302-10:05:58.180|56=Boerse|10=195|
8=FIX.4.4|9=56|35=0|34=21|49=Boerse|52=20170302-10:05:58.182|56=Client|10=197|
8=FIX.4.4|9=56|35=0|34=22|49=Client|52=20170302-10:06:03.181|56=Boerse|10=188|
8=FIX.4.4|9=56|35=0|34=22|49=Boerse|52=20170302-10:06:03.183|56=Client|10=190|
8=FIX.4.4|9=56|35=0|34=23|49=Client|52=20170302-10:06:08.181|56=Boerse|10=194|
8=FIX.4.4|9=56|35=0|34=23|49=Boerse|52=20170302-10:06:08.183|56=Client|10=196|
8=FIX.4.4|9=56|35=0|34=24|49=Client|52=20170302-10:06:13.181|56=Boerse|10=191|
8=FIX.4.4|9=56|35=0|34=24|49=Boerse|52=20170302-10:06:13.182|56=Client|10=192|
8=FIX.4.4|9=56|35=0|34=25|49=Client|52=20170302-10:06:18.181|56=Boerse|10=197|
8=FIX.4.4|9=56|35=0|34=25|49=Boerse|52=20170302-10:06:18.184|56=Client|10=200|
8=FIX.4.4|9=56|35=0|34=26|49=Client|52=20170302-10:06:23.181|56=Boerse|10=194|
8=FIX.4.4|9=56|35=0|34=26|49=Boerse|52=20170302-10:06:23.184|56=Client|10=197|
8=FIX.4.4|9=56|35=0|34=27|49=Client|52=20170302-10:06:28.181|56=Boerse|10=200|
8=FIX.4.4|9=56|35=0|34=27|49=Boerse|52=20170302-10:06:28.184|56=Client|10=203|
8=FIX.4.4|9=56|35=0|34=28|49=Client|52=20170302-10:06:33.180|56=Boerse|10=196|
8=FIX.4.4|9=56|35=0|34=28|49=Boerse|52=20170302-10:06:33.182|56=Client|10=198|
8=FIX.4.4|9=56|35=0|34=29|49=Client|52=20170302-10:06:38.181|56=Boerse|10=203|
8=FIX.4.4|9=56|35=0|34=29|49=Boerse|52=20170302-10:06:38.183|56=Client|10=205|
8=FIX.4.4|9=56|35=0|34=30|49=Client|52=20170302-10:06:43.181|56=Boerse|10=191|
8=FIX.4.4|9=56|35=0|34=30|49=Boerse|52=20170302-10:06:43.183|56=Client|10=193|
8=FIX.4.4|9=67|35=A|34=31|49=Client|52=20170302-10:06:47.181|56=Boerse|98=0|108=5|10=194|
8=FIX.4.4|9=67|35=A|34=31|49=Boerse|52=20170302-10:06:47.185|56=Client|98=0|108=5|10=198|
8=FIX.4.4|9=56|35=0|34=32|49=Client|52=20170302-10:06:52.181|56=Boerse|10=193|
8=FIX.4.4|9=56|35=0|34=32|49=Boerse|52=20170302-10:06:52.184|56=Client|10=196|
8=FIX.4.4|9=56|35=0|34=33|49=Client|52=20170302-10:06:57.181|56=Boerse|10=199|
8=FIX.4.4|9=56|35=0|34=33|49=Boerse|52=20170302-10:06:57.183|56=Client|10=201|
8=FIX.4.4|9=56|35=0|34=34|49=Client|52=20170302-10:07:02.181|56=Boerse|10=191|
8=FIX.4.4|9=56|35=0|34=34|49=Boerse|52=20170302-10:07:02.187|56=Client|10=197|
8=FIX.4.4|9=56|35=0|34=35|49=Client|52=20170302-10:07:07.181|56=Boerse|10=197|
8=FIX.4.4|9=56|35=0|34=35|49=Boerse|52=20170302-10:07:07.183|56=Client|10=199|
8=FIX.4.4|9=56|35=0|34=36|49=Client|52=20170302-10:07:12.181|56=Boerse|10=194|
8=FIX.4.4|9=56|35=0|34=36|49=Boerse|52=20170302-10:07:12.183|56=Client|10=196|
8=FIX.4.4|9=56|35=0|34=37|49=Client|52=20170302-10:07:17.180|56=Boerse|10=199|
8=FIX.4.4|9=56|35=0|34=37|49=Boerse|52=20170302-10:07:17.182|56=Client|10=201|
8=FIX.4.4|9=56|35=0|34=38|49=Client|52=20170302-10:07:22.181|56=Boerse|10=197|
8=FIX.4.4|9=56|35=0|34=38|49=Boerse|52=20170302-10:07:22.183|56=Client|10=199|
8=FIX.4.4|9=56|35=0|34=39|49=Client|52=20170302-10:07:27.181|56=Boerse|10=203|
8=FIX.4.4|9=56|35=0|34=39|49=Boerse|52=20170302-10:07:27.183|56=Client|10=205|
8=FIX.4.4|9=56|35=0|34=40|49=Client|52=20170302-10:07:32.181|56=Boerse|10=191|
8=FIX.4.4|9=56|35=0|34=40|49=Boerse|52=20170302-10:07:32.183|56=Client|10=193|
8=FIX.4.4|9=56|35=0|34=41|49=Client|52=20170302-10:07:37.181|56=Boerse|10=197|
8=FIX.4.4|9=56|35=0|34=41|49=Boerse|52=20170302-10:07:37.183|56=Client|10=199|
8=FIX.4.4|9=56|35=0|34=42|49=Client|52=20170302-10:07:42.181|56=Boerse|10=194|
8=FIX.4.4|9=56|35=0|34=42|49=Boerse|52=20170302-10:07:42.183|56=Client|10=196|
8=FIX.4.4|9=56|35=0|34=43|49=Client|52=20170302-10:07:47.181|56=Boerse|10=200|
8=FIX.4.4|9=56|35=0|34=43|49=Boerse|52=20170302-10:07:47.184|56=Client|10=203|
8=FIX.4.4|9=68|35=A|34=1|49=Client|52=20170302-10:08:44.599|56=Boerse|108=30|141=Y|10=024|
8=FIX.4.4|9=66|35=A|34=2|49=Client|52=20170302-10:08:45.587|56=Boerse|98=0|108=5|10=153|
8=FIX.4.4|9=106|35=5|34=44|49=Boerse|52=20170302-10:08:45.625|56=Client|58=MsgSeqNum too low, expecting 44 but received 2|10=202|
8=FIX.4.4|9=55|35=5|34=3|49=Client|52=20170302-10:08:45.649|56=Boerse|10=160|
8=FIX.4.4|9=66|35=A|34=4|49=Client|52=20170302-10:09:15.586|56=Boerse|98=0|108=5|10=152|
8=FIX.4.4|9=106|35=5|34=45|49=Boerse|52=20170302-10:09:15.590|56=Client|58=MsgSeqNum too low, expecting 44 but received 4|10=204|
8=FIX.4.4|9=55|35=5|34=5|49=Client|52=20170302-10:09:15.595|56=Boerse|10=160|
8=FIX.4.4|9=68|35=A|34=1|49=Client|52=20170302-10:11:40.203|56=Boerse|108=30|141=Y|10=252|
8=FIX.4.4|9=66|35=A|34=2|49=Client|52=20170302-10:11:41.189|56=Boerse|98=0|108=5|10=141|
8=FIX.4.4|9=66|35=A|34=1|49=Boerse|52=20170302-10:11:41.233|56=Client|98=0|108=5|10=130|
8=FIX.4.4|9=64|35=2|34=2|49=Boerse|52=20170302-10:11:41.240|56=Client|7=1|16=0|10=000|
8=FIX.4.4|9=97|35=4|34=1|43=Y|49=Client|52=20170302-10:11:41.260|56=Boerse|122=20170302-10:11:41.259|36=3|123=Y|10=140|
8=FIX.4.4|9=55|35=0|34=3|49=Client|52=20170302-10:11:47.189|56=Boerse|10=150|
8=FIX.4.4|9=55|35=0|34=3|49=Boerse|52=20170302-10:11:47.194|56=Client|10=146|
8=FIX.4.4|9=55|35=0|34=4|49=Client|52=20170302-10:11:52.187|56=Boerse|10=145|
8=FIX.4.4|9=55|35=0|34=4|49=Boerse|52=20170302-10:11:52.191|56=Client|10=140|
8=FIX.4.4|9=55|35=0|34=5|49=Client|52=20170302-10:11:57.188|56=Boerse|10=152|
8=FIX.4.4|9=55|35=0|34=5|49=Boerse|52=20170302-10:11:57.191|56=Client|10=146|
8=FIX.4.4|9=55|35=0|34=6|49=Client|52=20170302-10:12:02.187|56=Boerse|10=143|
8=FIX.4.4|9=55|35=0|34=6|49=Boerse|52=20170302-10:12:02.190|56=Client|10=137|
8=FIX.4.4|9=55|35=0|34=7|49=Client|52=20170302-10:12:07.187|56=Boerse|10=149|
8=FIX.4.4|9=55|35=0|34=7|49=Boerse|52=20170302-10:12:07.190|56=Client|10=143|
8=FIX.4.4|9=55|35=0|34=8|49=Client|52=20170302-10:12:12.187|56=Boerse|10=146|
8=FIX.4.4|9=55|35=0|34=8|49=Boerse|52=20170302-10:12:12.188|56=Client|10=147|
8=FIX.4.4|9=55|35=0|34=9|49=Client|52=20170302-10:12:17.187|56=Boerse|10=152|
8=FIX.4.4|9=55|35=0|34=9|49=Boerse|52=20170302-10:12:17.190|56=Client|10=146|
8=FIX.4.4|9=56|35=0|34=10|49=Client|52=20170302-10:12:22.187|56=Boerse|10=189|
8=FIX.4.4|9=56|35=0|34=10|49=Boerse|52=20170302-10:12:22.189|56=Client|10=191|
8=FIX.4.4|9=56|35=0|34=11|49=Client|52=20170302-10:12:27.187|56=Boerse|10=195|
8=FIX.4.4|9=56|35=0|34=11|49=Boerse|52=20170302-10:12:27.188|56=Client|10=196|
8=FIX.4.4|9=56|35=0|34=12|49=Client|52=20170302-10:12:32.187|56=Boerse|10=192|
8=FIX.4.4|9=56|35=0|34=12|49=Boerse|52=20170302-10:12:32.188|56=Client|10=193|
8=FIX.4.4|9=56|35=0|34=13|49=Client|52=20170302-10:12:37.187|56=Boerse|10=198|
8=FIX.4.4|9=56|35=0|34=13|49=Boerse|52=20170302-10:12:37.190|56=Client|10=192|
8=FIX.4.4|9=56|35=0|34=14|49=Client|52=20170302-10:12:42.188|56=Boerse|10=196|
8=FIX.4.4|9=56|35=0|34=14|49=Boerse|52=20170302-10:12:42.190|56=Client|10=189|
8=FIX.4.4|9=56|35=0|34=15|49=Client|52=20170302-10:12:47.187|56=Boerse|10=201|
8=FIX.4.4|9=56|35=0|34=15|49=Boerse|52=20170302-10:12:47.189|56=Client|10=203|
8=FIX.4.4|9=56|35=0|34=16|49=Client|52=20170302-10:12:52.187|56=Boerse|10=198|
8=FIX.4.4|9=56|35=0|34=16|49=Boerse|52=20170302-10:12:52.190|56=Client|10=192|
8=FIX.4.4|9=56|35=0|34=17|49=Client|52=20170302-10:12:57.187|56=Boerse|10=204|
8=FIX.4.4|9=56|35=0|34=17|49=Boerse|52=20170302-10:12:57.189|56=Client|10=206|
8=FIX.4.4|9=68|35=A|34=1|49=Client|52=20170302-12:00:30.254|56=Boerse|108=30|141=Y|10=001|
8=FIX.4.4|9=66|35=A|34=2|49=Client|52=20170302-12:00:31.227|56=Boerse|98=0|108=5|10=133|
8=FIX.4.4|9=66|35=A|34=1|49=Boerse|52=20170302-12:00:31.288|56=Client|98=0|108=5|10=139|
8=FIX.4.4|9=64|35=2|34=2|49=Boerse|52=20170302-12:00:31.293|56=Client|7=1|16=0|10=007|
8=FIX.4.4|9=97|35=4|34=1|43=Y|49=Client|52=20170302-12:00:31.312|56=Boerse|122=20170302-12:00:31.311|36=3|123=Y|10=125|
8=FIX.4.4|9=55|35=0|34=3|49=Client|52=20170302-12:00:37.227|56=Boerse|10=142|
8=FIX.4.4|9=55|35=0|34=3|49=Boerse|52=20170302-12:00:37.231|56=Client|10=137|
8=FIX.4.4|9=55|35=0|34=4|49=Client|52=20170302-12:00:42.226|56=Boerse|10=138|
8=FIX.4.4|9=55|35=0|34=4|49=Boerse|52=20170302-12:00:42.230|56=Client|10=133|
8=FIX.4.4|9=55|35=0|34=5|49=Client|52=20170302-12:00:47.226|56=Boerse|10=144|
8=FIX.4.4|9=55|35=0|34=5|49=Boerse|52=20170302-12:00:47.229|56=Client|10=147|
8=FIX.4.4|9=55|35=0|34=6|49=Client|52=20170302-12:00:52.226|56=Boerse|10=141|
8=FIX.4.4|9=55|35=0|34=6|49=Boerse|52=20170302-12:00:52.229|56=Client|10=144|
8=FIX.4.4|9=55|35=0|34=7|49=Client|52=20170302-12:00:57.225|56=Boerse|10=146|
8=FIX.4.4|9=55|35=0|34=7|49=Boerse|52=20170302-12:00:57.229|56=Client|10=150|
8=FIX.4.4|9=55|35=0|34=8|49=Client|52=20170302-12:01:02.225|56=Boerse|10=138|
8=FIX.4.4|9=55|35=0|34=8|49=Boerse|52=20170302-12:01:02.229|56=Client|10=142|
8=FIX.4.4|9=55|35=0|34=9|49=Client|52=20170302-12:01:07.226|56=Boerse|10=145|
8=FIX.4.4|9=55|35=0|34=9|49=Boerse|52=20170302-12:01:07.230|56=Client|10=140|
8=FIX.4.4|9=56|35=0|34=10|49=Client|52=20170302-12:01:12.226|56=Boerse|10=182|
8=FIX.4.4|9=56|35=0|34=10|49=Boerse|52=20170302-12:01:12.229|56=Client|10=185|
8=FIX.4.4|9=56|35=0|34=11|49=Client|52=20170302-12:01:17.225|56=Boerse|10=187|
8=FIX.4.4|9=56|35=0|34=11|49=Boerse|52=20170302-12:01:17.227|56=Client|10=189|
8=FIX.4.4|9=56|35=0|34=12|49=Client|52=20170302-12:01:22.225|56=Boerse|10=184|
8=FIX.4.4|9=56|35=0|34=12|49=Boerse|52=20170302-12:01:22.227|56=Client|10=186|
8=FIX.4.4|9=56|35=0|34=13|49=Client|52=20170302-12:01:27.225|56=Boerse|10=190|
8=FIX.4.4|9=56|35=0|34=13|49=Boerse|52=20170302-12:01:27.228|56=Client|10=193|
8=FIX.4.4|9=56|35=0|34=14|49=Client|52=20170302-12:01:32.226|56=Boerse|10=188|
8=FIX.4.4|9=56|35=0|34=14|49=Boerse|52=20170302-12:01:32.228|56=Client|10=190|
8=FIX.4.4|9=56|35=0|34=15|49=Client|52=20170302-12:01:37.225|56=Boerse|10=193|
8=FIX.4.4|9=56|35=0|34=15|49=Boerse|52=20170302-12:01:37.228|56=Client|10=196|
8=FIX.4.4|9=56|35=0|34=16|49=Client|52=20170302-12:01:42.225|56=Boerse|10=190|
8=FIX.4.4|9=56|35=0|34=16|49=Boerse|52=20170302-12:01:42.228|56=Client|10=193|
8=FIX.4.4|9=56|35=0|34=17|49=Client|52=20170302-12:01:47.225|56=Boerse|10=196|
8=FIX.4.4|9=56|35=0|34=17|49=Boerse|52=20170302-12:01:47.228|56=Client|10=199|
8=FIX.4.4|9=56|35=0|34=18|49=Client|52=20170302-12:01:52.225|56=Boerse|10=193|
8=FIX.4.4|9=56|35=0|34=18|49=Boerse|52=20170302-12:01:52.226|56=Client|10=194|
8=FIX.4.4|9=56|35=0|34=19|49=Client|52=20170302-12:01:57.225|56=Boerse|10=199|
8=FIX.4.4|9=56|35=0|34=19|49=Boerse|52=20170302-12:01:57.228|56=Client|10=202|
8=FIX.4.4|9=56|35=0|34=20|49=Client|52=20170302-12:02:02.225|56=Boerse|10=182|
8=FIX.4.4|9=56|35=0|34=20|49=Boerse|52=20170302-12:02:02.228|56=Client|10=185|
8=FIX.4.4|9=56|35=0|34=21|49=Client|52=20170302-12:02:07.225|56=Boerse|10=188|
8=FIX.4.4|9=56|35=0|34=21|49=Boerse|52=20170302-12:02:07.227|56=Client|10=190|
8=FIX.4.4|9=56|35=0|34=22|49=Client|52=20170302-12:02:12.225|56=Boerse|10=185|
8=FIX.4.4|9=56|35=0|34=22|49=Boerse|52=20170302-12:02:12.228|56=Client|10=188|
8=FIX.4.4|9=56|35=0|34=23|49=Client|52=20170302-12:02:17.226|56=Boerse|10=192|
8=FIX.4.4|9=56|35=0|34=23|49=Boerse|52=20170302-12:02:17.228|56=Client|10=194|
8=FIX.4.4|9=56|35=0|34=24|49=Client|52=20170302-12:02:22.225|56=Boerse|10=188|
8=FIX.4.4|9=56|35=0|34=24|49=Boerse|52=20170302-12:02:22.228|56=Client|10=191|
8=FIX.4.4|9=56|35=0|34=25|49=Client|52=20170302-12:02:27.226|56=Boerse|10=195|
8=FIX.4.4|9=56|35=0|34=25|49=Boerse|52=20170302-12:02:27.229|56=Client|10=198|
8=FIX.4.4|9=56|35=0|34=26|49=Client|52=20170302-12:02:32.225|56=Boerse|10=191|
8=FIX.4.4|9=56|35=0|34=26|49=Boerse|52=20170302-12:02:32.227|56=Client|10=193|
8=FIX.4.4|9=56|35=0|34=27|49=Client|52=20170302-12:02:37.226|56=Boerse|10=198|
8=FIX.4.4|9=56|35=0|34=27|49=Boerse|52=20170302-12:02:37.228|56=Client|10=200|
8=FIX.4.4|9=56|35=0|34=28|49=Client|52=20170302-12:02:42.225|56=Boerse|10=194|
8=FIX.4.4|9=56|35=0|34=28|49=Boerse|52=20170302-12:02:42.227|56=Client|10=196|
8=FIX.4.4|9=56|35=0|34=29|49=Client|52=20170302-12:02:47.225|56=Boerse|10=200|
8=FIX.4.4|9=56|35=0|34=29|49=Boerse|52=20170302-12:02:47.228|56=Client|10=203|
8=FIX.4.4|9=56|35=0|34=30|49=Client|52=20170302-12:02:52.225|56=Boerse|10=188|
8=FIX.4.4|9=56|35=0|34=30|49=Boerse|52=20170302-12:02:52.226|56=Client|10=189|
8=FIX.4.4|9=56|35=0|34=31|49=Client|52=20170302-12:02:57.225|56=Boerse|10=194|
8=FIX.4.4|9=56|35=0|34=31|49=Boerse|52=20170302-12:02:57.228|56=Client|10=197|
8=FIX.4.4|9=56|35=0|34=32|49=Client|52=20170302-12:03:02.225|56=Boerse|10=186|
8=FIX.4.4|9=56|35=0|34=32|49=Boerse|52=20170302-12:03:02.229|56=Client|10=190|
8=FIX.4.4|9=56|35=0|34=33|49=Client|52=20170302-12:03:07.225|56=Boerse|10=192|
8=FIX.4.4|9=56|35=0|34=33|49=Boerse|52=20170302-12:03:07.227|56=Client|10=194|
8=FIX.4.4|9=56|35=0|34=34|49=Client|52=20170302-12:03:12.225|56=Boerse|10=189|
8=FIX.4.4|9=56|35=0|34=34|49=Boerse|52=20170302-12:03:12.228|56=Client|10=192|
8=FIX.4.4|9=56|35=0|34=35|49=Client|52=20170302-12:03:17.225|56=Boerse|10=195|
8=FIX.4.4|9=56|35=0|34=35|49=Boerse|52=20170302-12:03:17.227|56=Client|10=197|
8=FIX.4.4|9=56|35=0|34=36|49=Client|52=20170302-12:03:22.225|56=Boerse|10=192|
8=FIX.4.4|9=56|35=0|34=36|49=Boerse|52=20170302-12:03:22.227|56=Client|10=194|
8=FIX.4.4|9=56|35=0|34=37|49=Client|52=20170302-12:03:27.225|56=Boerse|10=198|
8=FIX.4.4|9=56|35=0|34=37|49=Boerse|52=20170302-12:03:27.228|56=Client|10=201|
8=FIX.4.4|9=56|35=0|34=38|49=Client|52=20170302-12:03:32.225|56=Boerse|10=195|
8=FIX.4.4|9=56|35=0|34=38|49=Boerse|52=20170302-12:03:32.227|56=Client|10=197|
8=FIX.4.4|9=56|35=0|34=39|49=Client|52=20170302-12:03:37.225|56=Boerse|10=201|
8=FIX.4.4|9=56|35=0|34=39|49=Boerse|52=20170302-12:03:37.228|56=Client|10=204|
8=FIX.4.4|9=56|35=0|34=40|49=Client|52=20170302-12:03:42.225|56=Boerse|10=189|
8=FIX.4.4|9=56|35=0|34=40|49=Boerse|52=20170302-12:03:42.228|56=Client|10=192|
8=FIX.4.4|9=56|35=0|34=41|49=Client|52=20170302-12:03:47.225|56=Boerse|10=195|
8=FIX.4.4|9=56|35=0|34=41|49=Boerse|52=20170302-12:03:47.227|56=Client|10=197|
8=FIX.4.4|9=56|35=0|34=42|49=Client|52=20170302-12:03:52.225|56=Boerse|10=192|
8=FIX.4.4|9=56|35=0|34=42|49=Boerse|52=20170302-12:03:52.226|56=Client|10=193|
8=FIX.4.4|9=56|35=0|34=43|49=Client|52=20170302-12:03:57.225|56=Boerse|10=198|
8=FIX.4.4|9=56|35=0|34=43|49=Boerse|52=20170302-12:03:57.228|56=Client|10=201|
8=FIX.4.4|9=56|35=0|34=44|49=Client|52=20170302-12:04:02.225|56=Boerse|10=190|
8=FIX.4.4|9=56|35=0|34=44|49=Boerse|52=20170302-12:04:02.229|56=Client|10=194|
8=FIX.4.4|9=56|35=0|34=45|49=Client|52=20170302-12:04:07.225|56=Boerse|10=196|
8=FIX.4.4|9=56|35=0|34=45|49=Boerse|52=20170302-12:04:07.228|56=Client|10=199|
8=FIX.4.4|9=56|35=0|34=46|49=Client|52=20170302-12:04:12.225|56=Boerse|10=193|
8=FIX.4.4|9=56|35=0|34=46|49=Boerse|52=20170302-12:04:12.228|56=Client|10=196|
8=FIX.4.4|9=56|35=0|34=47|49=Client|52=20170302-12:04:17.225|56=Boerse|10=199|
8=FIX.4.4|9=56|35=0|34=47|49=Boerse|52=20170302-12:04:17.227|56=Client|10=201|
8=FIX.4.4|9=56|35=0|34=48|49=Client|52=20170302-12:04:22.225|56=Boerse|10=196|
8=FIX.4.4|9=56|35=0|34=48|49=Boerse|52=20170302-12:04:22.227|56=Client|10=198|
8=FIX.4.4|9=56|35=0|34=49|49=Client|52=20170302-12:04:27.225|56=Boerse|10=202|
8=FIX.4.4|9=56|35=0|34=49|49=Boerse|52=20170302-12:04:27.228|56=Client|10=205|
8=FIX.4.4|9=56|35=0|34=50|49=Client|52=20170302-12:04:32.225|56=Boerse|10=190|
8=FIX.4.4|9=56|35=0|34=50|49=Boerse|52=20170302-12:04:32.227|56=Client|10=192|
8=FIX.4.4|9=56|35=0|34=51|49=Client|52=20170302-12:04:37.225|56=Boerse|10=196|
8=FIX.4.4|9=56|35=0|34=51|49=Boerse|52=20170302-12:04:37.227|56=Client|10=198|
8=FIX.4.4|9=56|35=0|34=52|49=Client|52=20170302-12:04:42.225|56=Boerse|10=193|
8=FIX.4.4|9=56|35=0|34=52|49=Boerse|52=20170302-12:04:42.228|56=Client|10=196|
8=FIX.4.4|9=56|35=0|34=53|49=Client|52=20170302-12:04:47.225|56=Boerse|10=199|
8=FIX.4.4|9=56|35=0|34=53|49=Boerse|52=20170302-12:04:47.228|56=Client|10=202|
8=FIX.4.4|9=56|35=0|34=54|49=Client|52=20170302-12:04:52.225|56=Boerse|10=196|
8=FIX.4.4|9=56|35=0|34=54|49=Boerse|52=20170302-12:04:52.227|56=Client|10=198|
8=FIX.4.4|9=56|35=0|34=55|49=Client|52=20170302-12:04:57.225|56=Boerse|10=202|
8=FIX.4.4|9=56|35=0|34=55|49=Boerse|52=20170302-12:04:57.227|56=Client|10=204|
8=FIX.4.4|9=56|35=0|34=56|49=Client|52=20170302-12:05:02.225|56=Boerse|10=194|
8=FIX.4.4|9=56|35=0|34=56|49=Boerse|52=20170302-12:05:02.227|56=Client|10=196|
8=FIX.4.4|9=56|35=0|34=57|49=Client|52=20170302-12:05:07.225|56=Boerse|10=200|
8=FIX.4.4|9=56|35=0|34=57|49=Boerse|52=20170302-12:05:07.228|56=Client|10=203|
8=FIX.4.4|9=56|35=0|34=58|49=Client|52=20170302-12:05:12.225|56=Boerse|10=197|
8=FIX.4.4|9=56|35=0|34=58|49=Boerse|52=20170302-12:05:12.227|56=Client|10=199|
8=FIX.4.4|9=56|35=0|34=59|49=Client|52=20170302-12:05:17.225|56=Boerse|10=203|
8=FIX.4.4|9=56|35=0|34=59|49=Boerse|52=20170302-12:05:17.227|56=Client|10=205|
8=FIX.4.4|9=56|35=0|34=60|49=Client|52=20170302-12:05:22.225|56=Boerse|10=191|
8=FIX.4.4|9=56|35=0|34=60|49=Boerse|52=20170302-12:05:22.227|56=Client|10=193|
8=FIX.4.4|9=56|35=0|34=61|49=Client|52=20170302-12:05:27.225|56=Boerse|10=197|
8=FIX.4.4|9=56|35=0|34=61|49=Boerse|52=20170302-12:05:27.226|56=Client|10=198|
8=FIX.4.4|9=56|35=0|34=62|49=Client|52=20170302-12:05:32.225|56=Boerse|10=194|
8=FIX.4.4|9=56|35=0|34=62|49=Boerse|52=20170302-12:05:32.227|56=Client|10=196|
8=FIX.4.4|9=56|35=0|34=63|49=Client|52=20170302-12:05:37.225|56=Boerse|10=200|
8=FIX.4.4|9=56|35=0|34=63|49=Boerse|52=20170302-12:05:37.228|56=Client|10=203|
8=FIX.4.4|9=56|35=0|34=64|49=Client|52=20170302-12:05:42.226|56=Boerse|10=198|
8=FIX.4.4|9=56|35=0|34=64|49=Boerse|52=20170302-12:05:42.229|56=Client|10=201|
8=FIX.4.4|9=56|35=0|34=65|49=Client|52=20170302-12:05:47.225|56=Boerse|10=203|
8=FIX.4.4|9=56|35=0|34=65|49=Boerse|52=20170302-12:05:47.227|56=Client|10=205|
8=FIX.4.4|9=56|35=0|34=66|49=Client|52=20170302-12:05:52.225|56=Boerse|10=200|
8=FIX.4.4|9=56|35=0|34=66|49=Boerse|52=20170302-12:05:52.227|56=Client|10=202|
8=FIX.4.4|9=56|35=0|34=67|49=Client|52=20170302-12:05:57.225|56=Boerse|10=206|
8=FIX.4.4|9=56|35=0|34=67|49=Boerse|52=20170302-12:05:57.227|56=Client|10=208|
8=FIX.4.4|9=56|35=0|34=68|49=Client|52=20170302-12:06:02.225|56=Boerse|10=198|
8=FIX.4.4|9=56|35=0|34=68|49=Boerse|52=20170302-12:06:02.227|56=Client|10=200|
8=FIX.4.4|9=56|35=0|34=69|49=Client|52=20170302-12:06:07.225|56=Boerse|10=204|
8=FIX.4.4|9=56|35=0|34=69|49=Boerse|52=20170302-12:06:07.227|56=Client|10=206|
8=FIX.4.4|9=56|35=0|34=70|49=Client|52=20170302-12:06:12.225|56=Boerse|10=192|
8=FIX.4.4|9=56|35=0|34=70|49=Boerse|52=20170302-12:06:12.227|56=Client|10=194|
8=FIX.4.4|9=56|35=0|34=71|49=Client|52=20170302-12:06:17.225|56=Boerse|10=198|
8=FIX.4.4|9=56|35=0|34=71|49=Boerse|52=20170302-12:06:17.227|56=Client|10=200|
8=FIX.4.4|9=56|35=0|34=72|49=Client|52=20170302-12:06:22.225|56=Boerse|10=195|
8=FIX.4.4|9=56|35=0|34=72|49=Boerse|52=20170302-12:06:22.227|56=Client|10=197|
8=FIX.4.4|9=56|35=0|34=73|49=Client|52=20170302-12:06:27.225|56=Boerse|10=201|
8=FIX.4.4|9=56|35=0|34=73|49=Boerse|52=20170302-12:06:27.228|56=Client|10=204|
8=FIX.4.4|9=56|35=0|34=74|49=Client|52=20170302-12:06:32.225|56=Boerse|10=198|
8=FIX.4.4|9=56|35=0|34=74|49=Boerse|52=20170302-12:06:32.227|56=Client|10=200|
8=FIX.4.4|9=56|35=0|34=75|49=Client|52=20170302-12:06:37.225|56=Boerse|10=204|
8=FIX.4.4|9=56|35=0|34=75|49=Boerse|52=20170302-12:06:37.227|56=Client|10=206|
8=FIX.4.4|9=56|35=0|34=76|49=Client|52=20170302-12:06:42.225|56=Boerse|10=201|
8=FIX.4.4|9=56|35=0|34=76|49=Boerse|52=20170302-12:06:42.227|56=Client|10=203|
8=FIX.4.4|9=56|35=0|34=77|49=Client|52=20170302-12:06:47.225|56=Boerse|10=207|
8=FIX.4.4|9=56|35=0|34=77|49=Boerse|52=20170302-12:06:47.227|56=Client|10=209|
8=FIX.4.4|9=56|35=0|34=78|49=Client|52=20170302-12:06:52.225|56=Boerse|10=204|
8=FIX.4.4|9=56|35=0|34=78|49=Boerse|52=20170302-12:06:52.227|56=Client|10=206|
8=FIX.4.4|9=56|35=0|34=79|49=Client|52=20170302-12:06:57.225|56=Boerse|10=210|
8=FIX.4.4|9=56|35=0|34=79|49=Boerse|52=20170302-12:06:57.226|56=Client|10=211|
8=FIX.4.4|9=56|35=0|34=80|49=Client|52=20170302-12:07:02.225|56=Boerse|10=193|
8=FIX.4.4|9=56|35=0|34=80|49=Boerse|52=20170302-12:07:02.227|56=Client|10=195|
8=FIX.4.4|9=56|35=0|34=81|49=Client|52=20170302-12:07:07.225|56=Boerse|10=199|
8=FIX.4.4|9=56|35=0|34=81|49=Boerse|52=20170302-12:07:07.228|56=Client|10=202|
8=FIX.4.4|9=56|35=0|34=82|49=Client|52=20170302-12:07:12.225|56=Boerse|10=196|
8=FIX.4.4|9=56|35=0|34=82|49=Boerse|52=20170302-12:07:12.227|56=Client|10=198|
8=FIX.4.4|9=56|35=0|34=83|49=Client|52=20170302-12:07:17.225|56=Boerse|10=202|
8=FIX.4.4|9=56|35=0|34=83|49=Boerse|52=20170302-12:07:17.228|56=Client|10=205|
8=FIX.4.4|9=56|35=0|34=84|49=Client|52=20170302-12:07:22.225|56=Boerse|10=199|
8=FIX.4.4|9=56|35=0|34=84|49=Boerse|52=20170302-12:07:22.227|56=Client|10=201|
8=FIX.4.4|9=56|35=0|34=85|49=Client|52=20170302-12:07:27.225|56=Boerse|10=205|
8=FIX.4.4|9=56|35=0|34=85|49=Boerse|52=20170302-12:07:27.228|56=Client|10=208|
8=FIX.4.4|9=56|35=0|34=86|49=Client|52=20170302-12:07:32.225|56=Boerse|10=202|
8=FIX.4.4|9=56|35=0|34=86|49=Boerse|52=20170302-12:07:32.228|56=Client|10=205|
8=FIX.4.4|9=56|35=0|34=87|49=Client|52=20170302-12:07:37.225|56=Boerse|10=208|
8=FIX.4.4|9=56|35=0|34=87|49=Boerse|52=20170302-12:07:37.230|56=Client|10=204|
8=FIX.4.4|9=56|35=0|34=88|49=Client|52=20170302-12:07:42.225|56=Boerse|10=205|
8=FIX.4.4|9=56|35=0|34=88|49=Boerse|52=20170302-12:07:42.227|56=Client|10=207|
8=FIX.4.4|9=56|35=0|34=89|49=Client|52=20170302-12:07:47.225|56=Boerse|10=211|
8=FIX.4.4|9=56|35=0|34=89|49=Boerse|52=20170302-12:07:47.227|56=Client|10=213|
8=FIX.4.4|9=56|35=0|34=90|49=Client|52=20170302-12:07:52.225|56=Boerse|10=199|
8=FIX.4.4|9=56|35=0|34=90|49=Boerse|52=20170302-12:07:52.227|56=Client|10=201|
8=FIX.4.4|9=56|35=0|34=91|49=Client|52=20170302-12:07:57.225|56=Boerse|10=205|
8=FIX.4.4|9=56|35=0|34=91|49=Boerse|52=20170302-12:07:57.227|56=Client|10=207|
8=FIX.4.4|9=56|35=0|34=92|49=Client|52=20170302-12:08:02.225|56=Boerse|10=197|
8=FIX.4.4|9=56|35=0|34=92|49=Boerse|52=20170302-12:08:02.227|56=Client|10=199|
8=FIX.4.4|9=56|35=0|34=93|49=Client|52=20170302-12:08:07.225|56=Boerse|10=203|
8=FIX.4.4|9=56|35=0|34=93|49=Boerse|52=20170302-12:08:07.227|56=Client|10=205|
8=FIX.4.4|9=56|35=0|34=94|49=Client|52=20170302-12:08:12.225|56=Boerse|10=200|
8=FIX.4.4|9=56|35=0|34=94|49=Boerse|52=20170302-12:08:12.227|56=Client|10=202|
8=FIX.4.4|9=56|35=0|34=95|49=Client|52=20170302-12:08:17.225|56=Boerse|10=206|
8=FIX.4.4|9=56|35=0|34=95|49=Boerse|52=20170302-12:08:17.227|56=Client|10=208|
8=FIX.4.4|9=56|35=0|34=96|49=Client|52=20170302-12:08:22.225|56=Boerse|10=203|
8=FIX.4.4|9=56|35=0|34=96|49=Boerse|52=20170302-12:08:22.227|56=Client|10=205|
8=FIX.4.4|9=56|35=0|34=97|49=Client|52=20170302-12:08:27.225|56=Boerse|10=209|
8=FIX.4.4|9=56|35=0|34=97|49=Boerse|52=20170302-12:08:27.227|56=Client|10=211|
8=FIX.4.4|9=56|35=0|34=98|49=Client|52=20170302-12:08:32.225|56=Boerse|10=206|
8=FIX.4.4|9=56|35=0|34=98|49=Boerse|52=20170302-12:08:32.227|56=Client|10=208|
8=FIX.4.4|9=56|35=0|34=99|49=Client|52=20170302-12:08:37.225|56=Boerse|10=212|
8=FIX.4.4|9=56|35=0|34=99|49=Boerse|52=20170302-12:08:37.226|56=Client|10=213|
8=FIX.4.4|9=57|35=0|34=100|49=Client|52=20170302-12:08:42.225|56=Boerse|10=240|
8=FIX.4.4|9=57|35=0|34=100|49=Boerse|52=20170302-12:08:42.227|56=Client|10=242|
8=FIX.4.4|9=57|35=0|34=101|49=Client|52=20170302-12:08:47.225|56=Boerse|10=246|
8=FIX.4.4|9=57|35=0|34=101|49=Boerse|52=20170302-12:08:47.227|56=Client|10=248|
8=FIX.4.4|9=57|35=0|34=102|49=Client|52=20170302-12:08:52.225|56=Boerse|10=243|
8=FIX.4.4|9=57|35=0|34=102|49=Boerse|52=20170302-12:08:52.226|56=Client|10=244|
8=FIX.4.4|9=57|35=0|34=103|49=Client|52=20170302-12:08:57.225|56=Boerse|10=249|
8=FIX.4.4|9=57|35=0|34=103|49=Boerse|52=20170302-12:08:57.227|56=Client|10=251|
8=FIX.4.4|9=57|35=0|34=104|49=Client|52=20170302-12:09:02.225|56=Boerse|10=241|
8=FIX.4.4|9=57|35=0|34=104|49=Boerse|52=20170302-12:09:02.227|56=Client|10=243|
8=FIX.4.4|9=57|35=0|34=105|49=Client|52=20170302-12:09:07.225|56=Boerse|10=247|
8=FIX.4.4|9=57|35=0|34=105|49=Boerse|52=20170302-12:09:07.227|56=Client|10=249|
8=FIX.4.4|9=57|35=0|34=106|49=Client|52=20170302-12:09:12.225|56=Boerse|10=244|
8=FIX.4.4|9=57|35=0|34=106|49=Boerse|52=20170302-12:09:12.227|56=Client|10=246|
8=FIX.4.4|9=57|35=0|34=107|49=Client|52=20170302-12:09:17.225|56=Boerse|10=250|
8=FIX.4.4|9=57|35=0|34=107|49=Boerse|52=20170302-12:09:17.226|56=Client|10=251|
8=FIX.4.4|9=57|35=0|34=108|49=Client|52=20170302-12:09:22.225|56=Boerse|10=247|
8=FIX.4.4|9=57|35=0|34=108|49=Boerse|52=20170302-12:09:22.226|56=Client|10=248|
8=FIX.4.4|9=57|35=0|34=109|49=Client|52=20170302-12:09:27.225|56=Boerse|10=253|
8=FIX.4.4|9=57|35=0|34=109|49=Boerse|52=20170302-12:09:27.226|56=Client|10=254|
8=FIX.4.4|9=57|35=0|34=110|49=Client|52=20170302-12:09:32.225|56=Boerse|10=241|
8=FIX.4.4|9=57|35=0|34=110|49=Boerse|52=20170302-12:09:32.227|56=Client|10=243|
8=FIX.4.4|9=57|35=0|34=111|49=Client|52=20170302-12:09:37.225|56=Boerse|10=247|
8=FIX.4.4|9=57|35=0|34=111|49=Boerse|52=20170302-12:09:37.227|56=Client|10=249|
8=FIX.4.4|9=57|35=0|34=112|49=Client|52=20170302-12:09:42.225|56=Boerse|10=244|
8=FIX.4.4|9=57|35=0|34=112|49=Boerse|52=20170302-12:09:42.227|56=Client|10=246|
8=FIX.4.4|9=57|35=0|34=113|49=Client|52=20170302-12:09:47.225|56=Boerse|10=250|
8=FIX.4.4|9=57|35=0|34=113|49=Boerse|52=20170302-12:09:47.226|56=Client|10=251|
8=FIX.4.4|9=57|35=0|34=114|49=Client|52=20170302-12:09:52.225|56=Boerse|10=247|
8=FIX.4.4|9=57|35=0|34=114|49=Boerse|52=20170302-12:09:52.227|56=Client|10=249|
8=FIX.4.4|9=57|35=0|34=115|49=Client|52=20170302-12:09:57.225|56=Boerse|10=253|
8=FIX.4.4|9=57|35=0|34=115|49=Boerse|52=20170302-12:09:57.226|56=Client|10=254|
8=FIX.4.4|9=57|35=0|34=116|49=Client|52=20170302-12:10:02.225|56=Boerse|10=236|
8=FIX.4.4|9=57|35=0|34=116|49=Boerse|52=20170302-12:10:02.227|56=Client|10=238|
8=FIX.4.4|9=57|35=0|34=117|49=Client|52=20170302-12:10:07.225|56=Boerse|10=242|
8=FIX.4.4|9=57|35=0|34=117|49=Boerse|52=20170302-12:10:07.227|56=Client|10=244|
8=FIX.4.4|9=57|35=0|34=118|49=Client|52=20170302-12:10:12.225|56=Boerse|10=239|
8=FIX.4.4|9=57|35=0|34=118|49=Boerse|52=20170302-12:10:12.227|56=Client|10=241|
8=FIX.4.4|9=57|35=0|34=119|49=Client|52=20170302-12:10:17.225|56=Boerse|10=245|
8=FIX.4.4|9=57|35=0|34=119|49=Boerse|52=20170302-12:10:17.226|56=Client|10=246|
8=FIX.4.4|9=57|35=0|34=120|49=Client|52=20170302-12:10:22.225|56=Boerse|10=233|
8=FIX.4.4|9=57|35=0|34=120|49=Boerse|52=20170302-12:10:22.226|56=Client|10=234|
8=FIX.4.4|9=57|35=0|34=121|49=Client|52=20170302-12:10:27.225|56=Boerse|10=239|
8=FIX.4.4|9=57|35=0|34=121|49=Boerse|52=20170302-12:10:27.227|56=Client|10=241|
8=FIX.4.4|9=57|35=0|34=122|49=Client|52=20170302-12:10:32.225|56=Boerse|10=236|
8=FIX.4.4|9=57|35=0|34=122|49=Boerse|52=20170302-12:10:32.227|56=Client|10=238|
8=FIX.4.4|9=57|35=0|34=123|49=Client|52=20170302-12:10:37.225|56=Boerse|10=242|
8=FIX.4.4|9=57|35=0|34=123|49=Boerse|52=20170302-12:10:37.227|56=Client|10=244|
8=FIX.4.4|9=57|35=0|34=124|49=Client|52=20170302-12:10:42.225|56=Boerse|10=239|
8=FIX.4.4|9=57|35=0|34=124|49=Boerse|52=20170302-12:10:42.227|56=Client|10=241|
8=FIX.4.4|9=57|35=0|34=125|49=Client|52=20170302-12:10:47.225|56=Boerse|10=245|
8=FIX.4.4|9=57|35=0|34=125|49=Boerse|52=20170302-12:10:47.228|56=Client|10=248|
8=FIX.4.4|9=57|35=0|34=126|49=Client|52=20170302-12:10:52.225|56=Boerse|10=242|
8=FIX.4.4|9=57|35=0|34=126|49=Boerse|52=20170302-12:10:52.226|56=Client|10=243|
8=FIX.4.4|9=57|35=0|34=127|49=Client|52=20170302-12:10:57.225|56=Boerse|10=248|
8=FIX.4.4|9=57|35=0|34=127|49=Boerse|52=20170302-12:10:57.227|56=Client|10=250|
8=FIX.4.4|9=57|35=0|34=128|49=Client|52=20170302-12:11:02.225|56=Boerse|10=240|
8=FIX.4.4|9=57|35=0|34=128|49=Boerse|52=20170302-12:11:02.228|56=Client|10=243|
8=FIX.4.4|9=57|35=0|34=129|49=Client|52=20170302-12:11:07.225|56=Boerse|10=246|
8=FIX.4.4|9=57|35=0|34=129|49=Boerse|52=20170302-12:11:07.227|56=Client|10=248|
8=FIX.4.4|9=57|35=0|34=130|49=Client|52=20170302-12:11:12.225|56=Boerse|10=234|
8=FIX.4.4|9=57|35=0|34=130|49=Boerse|52=20170302-12:11:12.227|56=Client|10=236|
8=FIX.4.4|9=57|35=0|34=131|49=Client|52=20170302-12:11:17.225|56=Boerse|10=240|
8=FIX.4.4|9=57|35=0|34=131|49=Boerse|52=20170302-12:11:17.227|56=Client|10=242|
8=FIX.4.4|9=57|35=0|34=132|49=Client|52=20170302-12:11:22.225|56=Boerse|10=237|
8=FIX.4.4|9=57|35=0|34=132|49=Boerse|52=20170302-12:11:22.227|56=Client|10=239|
8=FIX.4.4|9=57|35=0|34=133|49=Client|52=20170302-12:11:27.225|56=Boerse|10=243|
8=FIX.4.4|9=57|35=0|34=133|49=Boerse|52=20170302-12:11:27.227|56=Client|10=245|
8=FIX.4.4|9=57|35=0|34=134|49=Client|52=20170302-12:11:32.225|56=Boerse|10=240|
8=FIX.4.4|9=57|35=0|34=134|49=Boerse|52=20170302-12:11:32.227|56=Client|10=242|
8=FIX.4.4|9=57|35=0|34=135|49=Client|52=20170302-12:11:37.225|56=Boerse|10=246|
8=FIX.4.4|9=57|35=0|34=135|49=Boerse|52=20170302-12:11:37.226|56=Client|10=247|
8=FIX.4.4|9=57|35=0|34=136|49=Client|52=20170302-12:11:42.225|56=Boerse|10=243|
8=FIX.4.4|9=57|35=0|34=136|49=Boerse|52=20170302-12:11:42.226|56=Client|10=244|
8=FIX.4.4|9=57|35=0|34=137|49=Client|52=20170302-12:11:47.225|56=Boerse|10=249|
8=FIX.4.4|9=57|35=0|34=137|49=Boerse|52=20170302-12:11:47.226|56=Client|10=250|
8=FIX.4.4|9=57|35=0|34=138|49=Client|52=20170302-12:11:52.225|56=Boerse|10=246|
8=FIX.4.4|9=57|35=0|34=138|49=Boerse|52=20170302-12:11:52.226|56=Client|10=247|
8=FIX.4.4|9=57|35=0|34=139|49=Client|52=20170302-12:11:57.225|56=Boerse|10=252|
8=FIX.4.4|9=57|35=0|34=139|49=Boerse|52=20170302-12:11:57.230|56=Client|10=248|
8=FIX.4.4|9=57|35=0|34=140|49=Client|52=20170302-12:12:02.225|56=Boerse|10=235|
8=FIX.4.4|9=57|35=0|34=140|49=Boerse|52=20170302-12:12:02.227|56=Client|10=237|
8=FIX.4.4|9=57|35=0|34=141|49=Client|52=20170302-12:12:07.225|56=Boerse|10=241|
8=FIX.4.4|9=57|35=0|34=141|49=Boerse|52=20170302-12:12:07.226|56=Client|10=242|
8=FIX.4.4|9=57|35=0|34=142|49=Client|52=20170302-12:12:12.225|56=Boerse|10=238|
8=FIX.4.4|9=57|35=0|34=142|49=Boerse|52=20170302-12:12:12.227|56=Client|10=240|
8=FIX.4.4|9=57|35=0|34=143|49=Client|52=20170302-12:12:17.225|56=Boerse|10=244|
8=FIX.4.4|9=57|35=0|34=143|49=Boerse|52=20170302-12:12:17.226|56=Client|10=245|
8=FIX.4.4|9=57|35=0|34=144|49=Client|52=20170302-12:12:22.225|56=Boerse|10=241|
8=FIX.4.4|9=57|35=0|34=144|49=Boerse|52=20170302-12:12:22.226|56=Client|10=242|
8=FIX.4.4|9=57|35=0|34=145|49=Client|52=20170302-12:12:27.225|56=Boerse|10=247|
8=FIX.4.4|9=57|35=0|34=145|49=Boerse|52=20170302-12:12:27.227|56=Client|10=249|
8=FIX.4.4|9=57|35=0|34=146|49=Client|52=20170302-12:12:32.225|56=Boerse|10=244|
8=FIX.4.4|9=57|35=0|34=146|49=Boerse|52=20170302-12:12:32.226|56=Client|10=245|
8=FIX.4.4|9=57|35=0|34=147|49=Client|52=20170302-12:12:37.225|56=Boerse|10=250|
8=FIX.4.4|9=57|35=0|34=147|49=Boerse|52=20170302-12:12:37.227|56=Client|10=252|
8=FIX.4.4|9=57|35=0|34=148|49=Client|52=20170302-12:12:42.225|56=Boerse|10=247|
8=FIX.4.4|9=57|35=0|34=148|49=Boerse|52=20170302-12:12:42.227|56=Client|10=249|
8=FIX.4.4|9=57|35=0|34=149|49=Client|52=20170302-12:12:47.225|56=Boerse|10=253|
8=FIX.4.4|9=57|35=0|34=149|49=Boerse|52=20170302-12:12:47.226|56=Client|10=254|
8=FIX.4.4|9=57|35=0|34=150|49=Client|52=20170302-12:12:52.225|56=Boerse|10=241|
8=FIX.4.4|9=57|35=0|34=150|49=Boerse|52=20170302-12:12:52.226|56=Client|10=242|
8=FIX.4.4|9=57|35=0|34=151|49=Client|52=20170302-12:12:57.225|56=Boerse|10=247|
8=FIX.4.4|9=57|35=0|34=151|49=Boerse|52=20170302-12:12:57.227|56=Client|10=249|
8=FIX.4.4|9=57|35=0|34=152|49=Client|52=20170302-12:13:02.225|56=Boerse|10=239|
8=FIX.4.4|9=57|35=0|34=152|49=Boerse|52=20170302-12:13:02.226|56=Client|10=240|
8=FIX.4.4|9=57|35=0|34=153|49=Client|52=20170302-12:13:07.225|56=Boerse|10=245|
8=FIX.4.4|9=57|35=0|34=153|49=Boerse|52=20170302-12:13:07.227|56=Client|10=247|
8=FIX.4.4|9=57|35=0|34=154|49=Client|52=20170302-12:13:12.225|56=Boerse|10=242|
8=FIX.4.4|9=57|35=0|34=154|49=Boerse|52=20170302-12:13:12.227|56=Client|10=244|
8=FIX.4.4|9=57|35=0|34=155|49=Client|52=20170302-12:13:17.225|56=Boerse|10=248|
8=FIX.4.4|9=57|35=0|34=155|49=Boerse|52=20170302-12:13:17.227|56=Client|10=250|
8=FIX.4.4|9=57|35=0|34=156|49=Client|52=20170302-12:13:22.225|56=Boerse|10=245|
8=FIX.4.4|9=57|35=0|34=156|49=Boerse|52=20170302-12:13:22.226|56=Client|10=246|
8=FIX.4.4|9=57|35=0|34=157|49=Client|52=20170302-12:13:27.225|56=Boerse|10=251|
8=FIX.4.4|9=57|35=0|34=157|49=Boerse|52=20170302-12:13:27.227|56=Client|10=253|
8=FIX.4.4|9=57|35=0|34=158|49=Client|52=20170302-12:13:32.225|56=Boerse|10=248|
8=FIX.4.4|9=57|35=0|34=158|49=Boerse|52=20170302-12:13:32.227|56=Client|10=250|
8=FIX.4.4|9=57|35=0|34=159|49=Client|52=20170302-12:13:37.225|56=Boerse|10=254|
8=FIX.4.4|9=57|35=0|34=159|49=Boerse|52=20170302-12:13:37.227|56=Client|10=000|
8=FIX.4.4|9=57|35=0|34=160|49=Client|52=20170302-12:13:42.225|56=Boerse|10=242|
8=FIX.4.4|9=57|35=0|34=160|49=Boerse|52=20170302-12:13:42.227|56=Client|10=244|
8=FIX.4.4|9=57|35=0|34=161|49=Client|52=20170302-12:13:47.225|56=Boerse|10=248|
8=FIX.4.4|9=57|35=0|34=161|49=Boerse|52=20170302-12:13:47.227|56=Client|10=250|
8=FIX.4.4|9=57|35=0|34=162|49=Client|52=20170302-12:13:52.225|56=Boerse|10=245|
8=FIX.4.4|9=57|35=0|34=162|49=Boerse|52=20170302-12:13:52.226|56=Client|10=246|
8=FIX.4.4|9=57|35=0|34=163|49=Client|52=20170302-12:13:57.225|56=Boerse|10=251|
8=FIX.4.4|9=57|35=0|34=163|49=Boerse|52=20170302-12:13:57.227|56=Client|10=253|
8=FIX.4.4|9=57|35=0|34=164|49=Client|52=20170302-12:14:02.225|56=Boerse|10=243|
8=FIX.4.4|9=57|35=0|34=164|49=Boerse|52=20170302-12:14:02.227|56=Client|10=245|
8=FIX.4.4|9=57|35=0|34=165|49=Client|52=20170302-12:14:07.225|56=Boerse|10=249|
8=FIX.4.4|9=57|35=0|34=165|49=Boerse|52=20170302-12:14:07.227|56=Client|10=251|
8=FIX.4.4|9=57|35=0|34=166|49=Client|52=20170302-12:14:12.225|56=Boerse|10=246|
8=FIX.4.4|9=57|35=0|34=166|49=Boerse|52=20170302-12:14:12.227|56=Client|10=248|
8=FIX.4.4|9=57|35=0|34=167|49=Client|52=20170302-12:14:17.225|56=Boerse|10=252|
8=FIX.4.4|9=57|35=0|34=167|49=Boerse|52=20170302-12:14:17.227|56=Client|10=254|
8=FIX.4.4|9=57|35=0|34=168|49=Client|52=20170302-12:14:22.225|56=Boerse|10=249|
8=FIX.4.4|9=57|35=0|34=168|49=Boerse|52=20170302-12:14:22.226|56=Client|10=250|
8=FIX.4.4|9=57|35=0|34=169|49=Client|52=20170302-12:14:27.225|56=Boerse|10=255|
8=FIX.4.4|9=57|35=0|34=169|49=Boerse|52=20170302-12:14:27.227|56=Client|10=001|
8=FIX.4.4|9=57|35=0|34=170|49=Client|52=20170302-12:14:32.225|56=Boerse|10=243|
8=FIX.4.4|9=57|35=0|34=170|49=Boerse|52=20170302-12:14:32.227|56=Client|10=245|
8=FIX.4.4|9=57|35=0|34=171|49=Client|52=20170302-12:14:37.225|56=Boerse|10=249|
8=FIX.4.4|9=57|35=0|34=171|49=Boerse|52=20170302-12:14:37.227|56=Client|10=251|
8=FIX.4.4|9=57|35=0|34=172|49=Client|52=20170302-12:14:42.225|56=Boerse|10=246|
8=FIX.4.4|9=57|35=0|34=172|49=Boerse|52=20170302-12:14:42.227|56=Client|10=248|
8=FIX.4.4|9=57|35=0|34=173|49=Client|52=20170302-12:14:47.225|56=Boerse|10=252|
8=FIX.4.4|9=57|35=0|34=173|49=Boerse|52=20170302-12:14:47.227|56=Client|10=254|
8=FIX.4.4|9=57|35=0|34=174|49=Client|52=20170302-12:14:52.225|56=Boerse|10=249|
8=FIX.4.4|9=57|35=0|34=174|49=Boerse|52=20170302-12:14:52.226|56=Client|10=250|
8=FIX.4.4|9=57|35=0|34=175|49=Client|52=20170302-12:14:57.225|56=Boerse|10=255|
8=FIX.4.4|9=57|35=0|34=175|49=Boerse|52=20170302-12:14:57.226|56=Client|10=000|
8=FIX.4.4|9=57|35=0|34=176|49=Client|52=20170302-12:15:02.225|56=Boerse|10=247|
8=FIX.4.4|9=57|35=0|34=176|49=Boerse|52=20170302-12:15:02.227|56=Client|10=249|
8=FIX.4.4|9=57|35=0|34=177|49=Client|52=20170302-12:15:07.225|56=Boerse|10=253|
8=FIX.4.4|9=57|35=0|34=177|49=Boerse|52=20170302-12:15:07.226|56=Client|10=254|
8=FIX.4.4|9=57|35=0|34=178|49=Client|52=20170302-12:15:12.225|56=Boerse|10=250|
8=FIX.4.4|9=57|35=0|34=178|49=Boerse|52=20170302-12:15:12.227|56=Client|10=252|
8=FIX.4.4|9=57|35=0|34=179|49=Client|52=20170302-12:15:17.225|56=Boerse|10=000|
8=FIX.4.4|9=57|35=0|34=179|49=Boerse|52=20170302-12:15:17.227|56=Client|10=002|
8=FIX.4.4|9=57|35=0|34=180|49=Client|52=20170302-12:15:22.225|56=Boerse|10=244|
8=FIX.4.4|9=57|35=0|34=180|49=Boerse|52=20170302-12:15:22.226|56=Client|10=245|
8=FIX.4.4|9=57|35=0|34=181|49=Client|52=20170302-12:15:27.225|56=Boerse|10=250|
8=FIX.4.4|9=57|35=0|34=181|49=Boerse|52=20170302-12:15:27.227|56=Client|10=252|
8=FIX.4.4|9=57|35=0|34=182|49=Client|52=20170302-12:15:32.225|56=Boerse|10=247|
8=FIX.4.4|9=57|35=0|34=182|49=Boerse|52=20170302-12:15:32.227|56=Client|10=249|
8=FIX.4.4|9=57|35=0|34=183|49=Client|52=20170302-12:15:37.225|56=Boerse|10=253|
8=FIX.4.4|9=57|35=0|34=183|49=Boerse|52=20170302-12:15:37.227|56=Client|10=255|
8=FIX.4.4|9=57|35=0|34=184|49=Client|52=20170302-12:15:42.225|56=Boerse|10=250|
8=FIX.4.4|9=57|35=0|34=184|49=Boerse|52=20170302-12:15:42.227|56=Client|10=252|
8=FIX.4.4|9=57|35=0|34=185|49=Client|52=20170302-12:15:47.225|56=Boerse|10=000|
8=FIX.4.4|9=57|35=0|34=185|49=Boerse|52=20170302-12:15:47.227|56=Client|10=002|
8=FIX.4.4|9=57|35=0|34=186|49=Client|52=20170302-12:15:52.225|56=Boerse|10=253|
8=FIX.4.4|9=57|35=0|34=186|49=Boerse|52=20170302-12:15:52.226|56=Client|10=254|
8=FIX.4.4|9=57|35=0|34=187|49=Client|52=20170302-12:15:57.225|56=Boerse|10=003|
8=FIX.4.4|9=57|35=0|34=187|49=Boerse|52=20170302-12:15:57.227|56=Client|10=005|
8=FIX.4.4|9=57|35=0|34=188|49=Client|52=20170302-12:16:02.225|56=Boerse|10=251|
8=FIX.4.4|9=57|35=0|34=188|49=Boerse|52=20170302-12:16:02.227|56=Client|10=253|
8=FIX.4.4|9=57|35=0|34=189|49=Client|52=20170302-12:16:07.225|56=Boerse|10=001|
8=FIX.4.4|9=57|35=0|34=189|49=Boerse|52=20170302-12:16:07.227|56=Client|10=003|
8=FIX.4.4|9=57|35=0|34=190|49=Client|52=20170302-12:16:12.225|56=Boerse|10=245|
8=FIX.4.4|9=57|35=0|34=190|49=Boerse|52=20170302-12:16:12.227|56=Client|10=247|
8=FIX.4.4|9=57|35=0|34=191|49=Client|52=20170302-12:16:17.225|56=Boerse|10=251|
8=FIX.4.4|9=57|35=0|34=191|49=Boerse|52=20170302-12:16:17.227|56=Client|10=253|
8=FIX.4.4|9=57|35=0|34=192|49=Client|52=20170302-12:16:22.225|56=Boerse|10=248|
8=FIX.4.4|9=57|35=0|34=192|49=Boerse|52=20170302-12:16:22.226|56=Client|10=249|
8=FIX.4.4|9=57|35=0|34=193|49=Client|52=20170302-12:16:27.225|56=Boerse|10=254|
8=FIX.4.4|9=57|35=0|34=193|49=Boerse|52=20170302-12:16:27.228|56=Client|10=001|
8=FIX.4.4|9=57|35=0|34=194|49=Client|52=20170302-12:16:32.225|56=Boerse|10=251|
8=FIX.4.4|9=57|35=0|34=194|49=Boerse|52=20170302-12:16:32.227|56=Client|10=253|
8=FIX.4.4|9=57|35=0|34=195|49=Client|52=20170302-12:16:37.225|56=Boerse|10=001|
8=FIX.4.4|9=57|35=0|34=195|49=Boerse|52=20170302-12:16:37.227|56=Client|10=003|
8=FIX.4.4|9=57|35=0|34=196|49=Client|52=20170302-12:16:42.225|56=Boerse|10=254|
8=FIX.4.4|9=57|35=0|34=196|49=Boerse|52=20170302-12:16:42.226|56=Client|10=255|
8=FIX.4.4|9=57|35=0|34=197|49=Client|52=20170302-12:16:47.225|56=Boerse|10=004|
8=FIX.4.4|9=57|35=0|34=197|49=Boerse|52=20170302-12:16:47.227|56=Client|10=006|
8=FIX.4.4|9=57|35=0|34=198|49=Client|52=20170302-12:16:52.225|56=Boerse|10=001|
8=FIX.4.4|9=57|35=0|34=198|49=Boerse|52=20170302-12:16:52.226|56=Client|10=002|
8=FIX.4.4|9=57|35=0|34=199|49=Client|52=20170302-12:16:57.225|56=Boerse|10=007|
8=FIX.4.4|9=57|35=0|34=199|49=Boerse|52=20170302-12:16:57.226|56=Client|10=008|
8=FIX.4.4|9=57|35=0|34=200|49=Client|52=20170302-12:17:02.225|56=Boerse|10=237|
8=FIX.4.4|9=57|35=0|34=200|49=Boerse|52=20170302-12:17:02.227|56=Client|10=239|
8=FIX.4.4|9=57|35=0|34=201|49=Client|52=20170302-12:17:07.225|56=Boerse|10=243|
8=FIX.4.4|9=57|35=0|34=201|49=Boerse|52=20170302-12:17:07.226|56=Client|10=244|
8=FIX.4.4|9=57|35=0|34=202|49=Client|52=20170302-12:17:12.225|56=Boerse|10=240|
8=FIX.4.4|9=57|35=0|34=202|49=Boerse|52=20170302-12:17:12.226|56=Client|10=241|
8=FIX.4.4|9=57|35=0|34=203|49=Client|52=20170302-12:17:17.225|56=Boerse|10=246|
8=FIX.4.4|9=57|35=0|34=203|49=Boerse|52=20170302-12:17:17.227|56=Client|10=248|
8=FIX.4.4|9=57|35=0|34=204|49=Client|52=20170302-12:17:22.225|56=Boerse|10=243|
8=FIX.4.4|9=57|35=0|34=204|49=Boerse|52=20170302-12:17:22.227|56=Client|10=245|
8=FIX.4.4|9=57|35=0|34=205|49=Client|52=20170302-12:17:27.225|56=Boerse|10=249|
8=FIX.4.4|9=57|35=0|34=205|49=Boerse|52=20170302-12:17:27.226|56=Client|10=250|
8=FIX.4.4|9=57|35=0|34=206|49=Client|52=20170302-12:17:32.225|56=Boerse|10=246|
8=FIX.4.4|9=57|35=0|34=206|49=Boerse|52=20170302-12:17:32.227|56=Client|10=248|
8=FIX.4.4|9=57|35=0|34=207|49=Client|52=20170302-12:17:37.225|56=Boerse|10=252|
8=FIX.4.4|9=57|35=0|34=207|49=Boerse|52=20170302-12:17:37.226|56=Client|10=253|
8=FIX.4.4|9=57|35=0|34=208|49=Client|52=20170302-12:17:42.225|56=Boerse|10=249|
8=FIX.4.4|9=57|35=0|34=208|49=Boerse|52=20170302-12:17:42.226|56=Client|10=250|
8=FIX.4.4|9=57|35=0|34=209|49=Client|52=20170302-12:17:47.225|56=Boerse|10=255|
8=FIX.4.4|9=57|35=0|34=209|49=Boerse|52=20170302-12:17:47.227|56=Client|10=001|
8=FIX.4.4|9=57|35=0|34=210|49=Client|52=20170302-12:17:52.225|56=Boerse|10=243|
8=FIX.4.4|9=57|35=0|34=210|49=Boerse|52=20170302-12:17:52.226|56=Client|10=244|
8=FIX.4.4|9=57|35=0|34=211|49=Client|52=20170302-12:17:57.225|56=Boerse|10=249|
8=FIX.4.4|9=57|35=0|34=211|49=Boerse|52=20170302-12:17:57.226|56=Client|10=250|
8=FIX.4.4|9=57|35=0|34=212|49=Client|52=20170302-12:18:02.225|56=Boerse|10=241|
8=FIX.4.4|9=57|35=0|34=212|49=Boerse|52=20170302-12:18:02.227|56=Client|10=243|
8=FIX.4.4|9=57|35=0|34=213|49=Client|52=20170302-12:18:07.225|56=Boerse|10=247|
8=FIX.4.4|9=57|35=0|34=213|49=Boerse|52=20170302-12:18:07.226|56=Client|10=248|
8=FIX.4.4|9=57|35=0|34=214|49=Client|52=20170302-12:18:12.225|56=Boerse|10=244|
8=FIX.4.4|9=57|35=0|34=214|49=Boerse|52=20170302-12:18:12.225|56=Client|10=244|
8=FIX.4.4|9=57|35=0|34=215|49=Client|52=20170302-12:18:17.225|56=Boerse|10=250|
8=FIX.4.4|9=57|35=0|34=215|49=Boerse|52=20170302-12:18:17.226|56=Client|10=251|
8=FIX.4.4|9=57|35=0|34=216|49=Client|52=20170302-12:18:22.225|56=Boerse|10=247|
8=FIX.4.4|9=57|35=0|34=216|49=Boerse|52=20170302-12:18:22.226|56=Client|10=248|
8=FIX.4.4|9=57|35=0|34=217|49=Client|52=20170302-12:18:27.225|56=Boerse|10=253|
8=FIX.4.4|9=57|35=0|34=217|49=Boerse|52=20170302-12:18:27.226|56=Client|10=254|
8=FIX.4.4|9=57|35=0|34=218|49=Client|52=20170302-12:18:32.225|56=Boerse|10=250|
8=FIX.4.4|9=57|35=0|34=218|49=Boerse|52=20170302-12:18:32.226|56=Client|10=251|
8=FIX.4.4|9=57|35=0|34=219|49=Client|52=20170302-12:18:37.225|56=Boerse|10=000|
8=FIX.4.4|9=57|35=0|34=219|49=Boerse|52=20170302-12:18:37.225|56=Client|10=000|
8=FIX.4.4|9=57|35=0|34=220|49=Client|52=20170302-12:18:42.225|56=Boerse|10=244|
8=FIX.4.4|9=57|35=0|34=220|49=Boerse|52=20170302-12:18:42.226|56=Client|10=245|
8=FIX.4.4|9=57|35=0|34=221|49=Client|52=20170302-12:18:47.225|56=Boerse|10=250|
8=FIX.4.4|9=57|35=0|34=221|49=Boerse|52=20170302-12:18:47.226|56=Client|10=251|
8=FIX.4.4|9=57|35=0|34=222|49=Client|52=20170302-12:18:52.225|56=Boerse|10=247|
8=FIX.4.4|9=57|35=0|34=222|49=Boerse|52=20170302-12:18:52.226|56=Client|10=248|
8=FIX.4.4|9=57|35=0|34=223|49=Client|52=20170302-12:18:57.225|56=Boerse|10=253|
8=FIX.4.4|9=57|35=0|34=223|49=Boerse|52=20170302-12:18:57.226|56=Client|10=254|
8=FIX.4.4|9=57|35=0|34=224|49=Client|52=20170302-12:19:02.225|56=Boerse|10=245|
8=FIX.4.4|9=57|35=0|34=224|49=Boerse|52=20170302-12:19:02.226|56=Client|10=246|
8=FIX.4.4|9=57|35=0|34=225|49=Client|52=20170302-12:19:07.225|56=Boerse|10=251|
8=FIX.4.4|9=57|35=0|34=225|49=Boerse|52=20170302-12:19:07.226|56=Client|10=252|
8=FIX.4.4|9=57|35=0|34=226|49=Client|52=20170302-12:19:12.225|56=Boerse|10=248|
8=FIX.4.4|9=57|35=0|34=226|49=Boerse|52=20170302-12:19:12.225|56=Client|10=248|
8=FIX.4.4|9=57|35=0|34=227|49=Client|52=20170302-12:19:17.225|56=Boerse|10=254|
8=FIX.4.4|9=57|35=0|34=227|49=Boerse|52=20170302-12:19:17.226|56=Client|10=255|
8=FIX.4.4|9=57|35=0|34=228|49=Client|52=20170302-12:19:22.225|56=Boerse|10=251|
8=FIX.4.4|9=57|35=0|34=228|49=Boerse|52=20170302-12:19:22.226|56=Client|10=252|
8=FIX.4.4|9=57|35=0|34=229|49=Client|52=20170302-12:19:27.225|56=Boerse|10=001|
8=FIX.4.4|9=57|35=0|34=229|49=Boerse|52=20170302-12:19:27.226|56=Client|10=002|
8=FIX.4.4|9=57|35=0|34=230|49=Client|52=20170302-12:19:32.225|56=Boerse|10=245|
8=FIX.4.4|9=57|35=0|34=230|49=Boerse|52=20170302-12:19:32.226|56=Client|10=246|
8=FIX.4.4|9=57|35=0|34=231|49=Client|52=20170302-12:19:37.225|56=Boerse|10=251|
8=FIX.4.4|9=57|35=0|34=231|49=Boerse|52=20170302-12:19:37.226|56=Client|10=252|
8=FIX.4.4|9=57|35=0|34=232|49=Client|52=20170302-12:19:42.225|56=Boerse|10=248|
8=FIX.4.4|9=57|35=0|34=232|49=Boerse|52=20170302-12:19:42.225|56=Client|10=248|
8=FIX.4.4|9=57|35=0|34=233|49=Client|52=20170302-12:19:47.225|56=Boerse|10=254|
8=FIX.4.4|9=57|35=0|34=233|49=Boerse|52=20170302-12:19:47.226|56=Client|10=255|
8=FIX.4.4|9=57|35=0|34=234|49=Client|52=20170302-12:19:52.225|56=Boerse|10=251|
8=FIX.4.4|9=57|35=0|34=234|49=Boerse|52=20170302-12:19:52.226|56=Client|10=252|
8=FIX.4.4|9=57|35=0|34=235|49=Client|52=20170302-12:19:57.225|56=Boerse|10=001|
8=FIX.4.4|9=57|35=0|34=235|49=Boerse|52=20170302-12:19:57.226|56=Client|10=002|
8=FIX.4.4|9=57|35=0|34=236|49=Client|52=20170302-12:20:02.225|56=Boerse|10=240|
8=FIX.4.4|9=57|35=0|34=236|49=Boerse|52=20170302-12:20:02.227|56=Client|10=242|
8=FIX.4.4|9=57|35=0|34=237|49=Client|52=20170302-12:20:07.225|56=Boerse|10=246|
8=FIX.4.4|9=57|35=0|34=237|49=Boerse|52=20170302-12:20:07.227|56=Client|10=248|
8=FIX.4.4|9=57|35=0|34=238|49=Client|52=20170302-12:20:12.225|56=Boerse|10=243|
8=FIX.4.4|9=57|35=0|34=238|49=Boerse|52=20170302-12:20:12.226|56=Client|10=244|
8=FIX.4.4|9=57|35=0|34=239|49=Client|52=20170302-12:20:17.225|56=Boerse|10=249|
8=FIX.4.4|9=57|35=0|34=239|49=Boerse|52=20170302-12:20:17.226|56=Client|10=250|
8=FIX.4.4|9=57|35=0|34=240|49=Client|52=20170302-12:20:22.225|56=Boerse|10=237|
8=FIX.4.4|9=57|35=0|34=240|49=Boerse|52=20170302-12:20:22.226|56=Client|10=238|
8=FIX.4.4|9=57|35=0|34=241|49=Client|52=20170302-12:20:27.225|56=Boerse|10=243|
8=FIX.4.4|9=57|35=0|34=241|49=Boerse|52=20170302-12:20:27.226|56=Client|10=244|
8=FIX.4.4|9=57|35=0|34=242|49=Client|52=20170302-12:20:32.225|56=Boerse|10=240|
8=FIX.4.4|9=57|35=0|34=242|49=Boerse|52=20170302-12:20:32.226|56=Client|10=241|
8=FIX.4.4|9=57|35=0|34=243|49=Client|52=20170302-12:20:37.225|56=Boerse|10=246|
8=FIX.4.4|9=57|35=0|34=243|49=Boerse|52=20170302-12:20:37.225|56=Client|10=246|
8=FIX.4.4|9=57|35=0|34=244|49=Client|52=20170302-12:20:42.225|56=Boerse|10=243|
8=FIX.4.4|9=57|35=0|34=244|49=Boerse|52=20170302-12:20:42.226|56=Client|10=244|
8=FIX.4.4|9=57|35=0|34=245|49=Client|52=20170302-12:20:47.225|56=Boerse|10=249|
8=FIX.4.4|9=57|35=0|34=245|49=Boerse|52=20170302-12:20:47.226|56=Client|10=250|
8=FIX.4.4|9=57|35=0|34=246|49=Client|52=20170302-12:20:52.225|56=Boerse|10=246|
8=FIX.4.4|9=57|35=0|34=246|49=Boerse|52=20170302-12:20:52.227|56=Client|10=248|
8=FIX.4.4|9=57|35=0|34=247|49=Client|52=20170302-12:20:57.225|56=Boerse|10=252|
8=FIX.4.4|9=57|35=0|34=247|49=Boerse|52=20170302-12:20:57.226|56=Client|10=253|
8=FIX.4.4|9=57|35=0|34=248|49=Client|52=20170302-12:21:02.225|56=Boerse|10=244|
8=FIX.4.4|9=57|35=0|34=248|49=Boerse|52=20170302-12:21:02.228|56=Client|10=247|
8=FIX.4.4|9=57|35=0|34=249|49=Client|52=20170302-12:21:07.225|56=Boerse|10=250|
8=FIX.4.4|9=57|35=0|34=249|49=Boerse|52=20170302-12:21:07.226|56=Client|10=251|
8=FIX.4.4|9=57|35=0|34=250|49=Client|52=20170302-12:21:12.225|56=Boerse|10=238|
8=FIX.4.4|9=57|35=0|34=250|49=Boerse|52=20170302-12:21:12.226|56=Client|10=239|
8=FIX.4.4|9=57|35=0|34=251|49=Client|52=20170302-12:21:17.225|56=Boerse|10=244|
8=FIX.4.4|9=57|35=0|34=251|49=Boerse|52=20170302-12:21:17.227|56=Client|10=246|
8=FIX.4.4|9=57|35=0|34=252|49=Client|52=20170302-12:21:22.225|56=Boerse|10=241|
8=FIX.4.4|9=57|35=0|34=252|49=Boerse|52=20170302-12:21:22.227|56=Client|10=243|
8=FIX.4.4|9=57|35=0|34=253|49=Client|52=20170302-12:21:27.225|56=Boerse|10=247|
8=FIX.4.4|9=57|35=0|34=253|49=Boerse|52=20170302-12:21:27.227|56=Client|10=249|
8=FIX.4.4|9=57|35=0|34=254|49=Client|52=20170302-12:21:32.225|56=Boerse|10=244|
8=FIX.4.4|9=57|35=0|34=254|49=Boerse|52=20170302-12:21:32.226|56=Client|10=245|
8=FIX.4.4|9=57|35=0|34=255|49=Client|52=20170302-12:21:37.225|56=Boerse|10=250|
8=FIX.4.4|9=57|35=0|34=255|49=Boerse|52=20170302-12:21:37.226|56=Client|10=251|
8=FIX.4.4|9=57|35=0|34=256|49=Client|52=20170302-12:21:42.225|56=Boerse|10=247|
8=FIX.4.4|9=57|35=0|34=256|49=Boerse|52=20170302-12:21:42.226|56=Client|10=248|
8=FIX.4.4|9=57|35=0|34=257|49=Client|52=20170302-12:21:47.225|56=Boerse|10=253|
8=FIX.4.4|9=57|35=0|34=257|49=Boerse|52=20170302-12:21:47.226|56=Client|10=254|
8=FIX.4.4|9=57|35=0|34=258|49=Client|52=20170302-12:21:52.225|56=Boerse|10=250|
8=FIX.4.4|9=57|35=0|34=258|49=Boerse|52=20170302-12:21:52.227|56=Client|10=252|
8=FIX.4.4|9=57|35=0|34=259|49=Client|52=20170302-12:21:57.225|56=Boerse|10=000|
8=FIX.4.4|9=57|35=0|34=259|49=Boerse|52=20170302-12:21:57.226|56=Client|10=001|
8=FIX.4.4|9=57|35=0|34=260|49=Client|52=20170302-12:22:02.225|56=Boerse|10=239|
8=FIX.4.4|9=57|35=0|34=260|49=Boerse|52=20170302-12:22:02.226|56=Client|10=240|
8=FIX.4.4|9=57|35=0|34=261|49=Client|52=20170302-12:22:07.225|56=Boerse|10=245|
8=FIX.4.4|9=57|35=0|34=261|49=Boerse|52=20170302-12:22:07.226|56=Client|10=246|
8=FIX.4.4|9=57|35=0|34=262|49=Client|52=20170302-12:22:12.225|56=Boerse|10=242|
8=FIX.4.4|9=57|35=0|34=262|49=Boerse|52=20170302-12:22:12.226|56=Client|10=243|
8=FIX.4.4|9=57|35=0|34=263|49=Client|52=20170302-12:22:17.225|56=Boerse|10=248|
8=FIX.4.4|9=57|35=0|34=263|49=Boerse|52=20170302-12:22:17.226|56=Client|10=249|
8=FIX.4.4|9=57|35=0|34=264|49=Client|52=20170302-12:22:22.225|56=Boerse|10=245|
8=FIX.4.4|9=57|35=0|34=264|49=Boerse|52=20170302-12:22:22.226|56=Client|10=246|
8=FIX.4.4|9=57|35=0|34=265|49=Client|52=20170302-12:22:27.225|56=Boerse|10=251|
8=FIX.4.4|9=57|35=0|34=265|49=Boerse|52=20170302-12:22:27.227|56=Client|10=253|
8=FIX.4.4|9=57|35=0|34=266|49=Client|52=20170302-12:22:32.225|56=Boerse|10=248|
8=FIX.4.4|9=57|35=0|34=266|49=Boerse|52=20170302-12:22:32.226|56=Client|10=249|
8=FIX.4.4|9=57|35=0|34=267|49=Client|52=20170302-12:22:37.225|56=Boerse|10=254|
8=FIX.4.4|9=57|35=0|34=267|49=Boerse|52=20170302-12:22:37.226|56=Client|10=255|
8=FIX.4.4|9=57|35=0|34=268|49=Client|52=20170302-12:22:42.225|56=Boerse|10=251|
8=FIX.4.4|9=57|35=0|34=268|49=Boerse|52=20170302-12:22:42.226|56=Client|10=252|
8=FIX.4.4|9=57|35=0|34=269|49=Client|52=20170302-12:22:47.225|56=Boerse|10=001|
8=FIX.4.4|9=57|35=0|34=269|49=Boerse|52=20170302-12:22:47.226|56=Client|10=002|
8=FIX.4.4|9=57|35=0|34=270|49=Client|52=20170302-12:22:52.225|56=Boerse|10=245|
8=FIX.4.4|9=57|35=0|34=270|49=Boerse|52=20170302-12:22:52.226|56=Client|10=246|
8=FIX.4.4|9=57|35=0|34=271|49=Client|52=20170302-12:22:57.225|56=Boerse|10=251|
8=FIX.4.4|9=57|35=0|34=271|49=Boerse|52=20170302-12:22:57.226|56=Client|10=252|
8=FIX.4.4|9=57|35=0|34=272|49=Client|52=20170302-12:23:02.225|56=Boerse|10=243|
8=FIX.4.4|9=57|35=0|34=272|49=Boerse|52=20170302-12:23:02.226|56=Client|10=244|
8=FIX.4.4|9=57|35=0|34=273|49=Client|52=20170302-12:23:07.225|56=Boerse|10=249|
8=FIX.4.4|9=57|35=0|34=273|49=Boerse|52=20170302-12:23:07.226|56=Client|10=250|
8=FIX.4.4|9=57|35=0|34=274|49=Client|52=20170302-12:23:12.225|56=Boerse|10=246|
8=FIX.4.4|9=57|35=0|34=274|49=Boerse|52=20170302-12:23:12.226|56=Client|10=247|
8=FIX.4.4|9=57|35=0|34=275|49=Client|52=20170302-12:23:17.225|56=Boerse|10=252|
8=FIX.4.4|9=57|35=0|34=275|49=Boerse|52=20170302-12:23:17.226|56=Client|10=253|
8=FIX.4.4|9=57|35=0|34=276|49=Client|52=20170302-12:23:22.225|56=Boerse|10=249|
8=FIX.4.4|9=57|35=0|34=276|49=Boerse|52=20170302-12:23:22.226|56=Client|10=250|
8=FIX.4.4|9=57|35=0|34=277|49=Client|52=20170302-12:23:27.225|56=Boerse|10=255|
8=FIX.4.4|9=57|35=0|34=277|49=Boerse|52=20170302-12:23:27.226|56=Client|10=000|
8=FIX.4.4|9=57|35=0|34=278|49=Client|52=20170302-12:23:32.225|56=Boerse|10=252|
8=FIX.4.4|9=57|35=0|34=278|49=Boerse|52=20170302-12:23:32.226|56=Client|10=253|
8=FIX.4.4|9=57|35=0|34=279|49=Client|52=20170302-12:23:37.225|56=Boerse|10=002|
8=FIX.4.4|9=57|35=0|34=279|49=Boerse|52=20170302-12:23:37.226|56=Client|10=003|
8=FIX.4.4|9=57|35=0|34=280|49=Client|52=20170302-12:23:42.225|56=Boerse|10=246|
8=FIX.4.4|9=57|35=0|34=280|49=Boerse|52=20170302-12:23:42.227|56=Client|10=248|
8=FIX.4.4|9=57|35=0|34=281|49=Client|52=20170302-12:23:47.225|56=Boerse|10=252|
8=FIX.4.4|9=57|35=0|34=281|49=Boerse|52=20170302-12:23:47.226|56=Client|10=253|
8=FIX.4.4|9=57|35=0|34=282|49=Client|52=20170302-12:23:52.225|56=Boerse|10=249|
8=FIX.4.4|9=57|35=0|34=282|49=Boerse|52=20170302-12:23:52.226|56=Client|10=250|
8=FIX.4.4|9=57|35=0|34=283|49=Client|52=20170302-12:23:57.225|56=Boerse|10=255|
8=FIX.4.4|9=57|35=0|34=283|49=Boerse|52=20170302-12:23:57.226|56=Client|10=000|
8=FIX.4.4|9=57|35=0|34=284|49=Client|52=20170302-12:24:02.225|56=Boerse|10=247|
8=FIX.4.4|9=57|35=0|34=284|49=Boerse|52=20170302-12:24:02.227|56=Client|10=249|
8=FIX.4.4|9=57|35=0|34=285|49=Client|52=20170302-12:24:07.225|56=Boerse|10=253|
8=FIX.4.4|9=57|35=0|34=285|49=Boerse|52=20170302-12:24:07.226|56=Client|10=254|
8=FIX.4.4|9=57|35=0|34=286|49=Client|52=20170302-12:24:12.225|56=Boerse|10=250|
8=FIX.4.4|9=57|35=0|34=286|49=Boerse|52=20170302-12:24:12.226|56=Client|10=251|
8=FIX.4.4|9=57|35=0|34=287|49=Client|52=20170302-12:24:17.225|56=Boerse|10=000|
8=FIX.4.4|9=57|35=0|34=287|49=Boerse|52=20170302-12:24:17.226|56=Client|10=001|
8=FIX.4.4|9=57|35=0|34=288|49=Client|52=20170302-12:24:22.225|56=Boerse|10=253|
8=FIX.4.4|9=57|35=0|34=288|49=Boerse|52=20170302-12:24:22.226|56=Client|10=254|
8=FIX.4.4|9=57|35=0|34=289|49=Client|52=20170302-12:24:27.225|56=Boerse|10=003|
8=FIX.4.4|9=57|35=0|34=289|49=Boerse|52=20170302-12:24:27.226|56=Client|10=004|
8=FIX.4.4|9=57|35=0|34=290|49=Client|52=20170302-12:24:32.225|56=Boerse|10=247|
8=FIX.4.4|9=57|35=0|34=290|49=Boerse|52=20170302-12:24:32.226|56=Client|10=248|
8=FIX.4.4|9=57|35=0|34=291|49=Client|52=20170302-12:24:37.225|56=Boerse|10=253|
8=FIX.4.4|9=57|35=0|34=291|49=Boerse|52=20170302-12:24:37.226|56=Client|10=254|
8=FIX.4.4|9=57|35=0|34=292|49=Client|52=20170302-12:24:42.225|56=Boerse|10=250|
8=FIX.4.4|9=57|35=0|34=292|49=Boerse|52=20170302-12:24:42.226|56=Client|10=251|
8=FIX.4.4|9=57|35=0|34=293|49=Client|52=20170302-12:24:47.225|56=Boerse|10=000|
8=FIX.4.4|9=57|35=0|34=293|49=Boerse|52=20170302-12:24:47.226|56=Client|10=001|
8=FIX.4.4|9=57|35=0|34=294|49=Client|52=20170302-12:24:52.225|56=Boerse|10=253|
8=FIX.4.4|9=57|35=0|34=294|49=Boerse|52=20170302-12:24:52.226|56=Client|10=254|
8=FIX.4.4|9=57|35=0|34=295|49=Client|52=20170302-12:24:57.225|56=Boerse|10=003|
8=FIX.4.4|9=57|35=0|34=295|49=Boerse|52=20170302-12:24:57.226|56=Client|10=004|
8=FIX.4.4|9=57|35=0|34=296|49=Client|52=20170302-12:25:02.225|56=Boerse|10=251|
8=FIX.4.4|9=57|35=0|34=296|49=Boerse|52=20170302-12:25:02.226|56=Client|10=252|
8=FIX.4.4|9=57|35=0|34=297|49=Client|52=20170302-12:25:07.225|56=Boerse|10=001|
8=FIX.4.4|9=57|35=0|34=297|49=Boerse|52=20170302-12:25:07.226|56=Client|10=002|
8=FIX.4.4|9=57|35=0|34=298|49=Client|52=20170302-12:25:12.225|56=Boerse|10=254|
8=FIX.4.4|9=57|35=0|34=298|49=Boerse|52=20170302-12:25:12.227|56=Client|10=000|
8=FIX.4.4|9=57|35=0|34=299|49=Client|52=20170302-12:25:17.225|56=Boerse|10=004|
8=FIX.4.4|9=57|35=0|34=299|49=Boerse|52=20170302-12:25:17.227|56=Client|10=006|
8=FIX.4.4|9=57|35=0|34=300|49=Client|52=20170302-12:25:22.225|56=Boerse|10=239|
8=FIX.4.4|9=57|35=0|34=300|49=Boerse|52=20170302-12:25:22.226|56=Client|10=240|
8=FIX.4.4|9=57|35=0|34=301|49=Client|52=20170302-12:25:27.225|56=Boerse|10=245|
8=FIX.4.4|9=57|35=0|34=301|49=Boerse|52=20170302-12:25:27.226|56=Client|10=246|
8=FIX.4.4|9=57|35=0|34=302|49=Client|52=20170302-12:25:32.225|56=Boerse|10=242|
8=FIX.4.4|9=57|35=0|34=302|49=Boerse|52=20170302-12:25:32.226|56=Client|10=243|
8=FIX.4.4|9=57|35=0|34=303|49=Client|52=20170302-12:25:37.225|56=Boerse|10=248|
8=FIX.4.4|9=57|35=0|34=303|49=Boerse|52=20170302-12:25:37.226|56=Client|10=249|
8=FIX.4.4|9=57|35=0|34=304|49=Client|52=20170302-12:25:42.225|56=Boerse|10=245|
8=FIX.4.4|9=57|35=0|34=304|49=Boerse|52=20170302-12:25:42.227|56=Client|10=247|
8=FIX.4.4|9=57|35=0|34=305|49=Client|52=20170302-12:25:47.225|56=Boerse|10=251|
8=FIX.4.4|9=57|35=0|34=305|49=Boerse|52=20170302-12:25:47.227|56=Client|10=253|
8=FIX.4.4|9=57|35=0|34=306|49=Client|52=20170302-12:25:52.225|56=Boerse|10=248|
8=FIX.4.4|9=57|35=0|34=306|49=Boerse|52=20170302-12:25:52.227|56=Client|10=250|
8=FIX.4.4|9=57|35=0|34=307|49=Client|52=20170302-12:25:57.225|56=Boerse|10=254|
8=FIX.4.4|9=57|35=0|34=307|49=Boerse|52=20170302-12:25:57.227|56=Client|10=000|
8=FIX.4.4|9=57|35=0|34=308|49=Client|52=20170302-12:26:02.225|56=Boerse|10=246|
8=FIX.4.4|9=57|35=0|34=308|49=Boerse|52=20170302-12:26:02.226|56=Client|10=247|
8=FIX.4.4|9=57|35=0|34=309|49=Client|52=20170302-12:26:07.225|56=Boerse|10=252|
8=FIX.4.4|9=57|35=0|34=309|49=Boerse|52=20170302-12:26:07.226|56=Client|10=253|
8=FIX.4.4|9=57|35=0|34=310|49=Client|52=20170302-12:26:12.225|56=Boerse|10=240|
8=FIX.4.4|9=57|35=0|34=310|49=Boerse|52=20170302-12:26:12.226|56=Client|10=241|
8=FIX.4.4|9=57|35=0|34=311|49=Client|52=20170302-12:26:17.225|56=Boerse|10=246|
8=FIX.4.4|9=57|35=0|34=311|49=Boerse|52=20170302-12:26:17.226|56=Client|10=247|
8=FIX.4.4|9=57|35=0|34=312|49=Client|52=20170302-12:26:22.225|56=Boerse|10=243|
8=FIX.4.4|9=57|35=0|34=312|49=Boerse|52=20170302-12:26:22.226|56=Client|10=244|
8=FIX.4.4|9=57|35=0|34=313|49=Client|52=20170302-12:26:27.225|56=Boerse|10=249|
8=FIX.4.4|9=57|35=0|34=313|49=Boerse|52=20170302-12:26:27.226|56=Client|10=250|
8=FIX.4.4|9=57|35=0|34=314|49=Client|52=20170302-12:26:32.225|56=Boerse|10=246|
8=FIX.4.4|9=57|35=0|34=314|49=Boerse|52=20170302-12:26:32.226|56=Client|10=247|
8=FIX.4.4|9=57|35=0|34=315|49=Client|52=20170302-12:26:37.225|56=Boerse|10=252|
8=FIX.4.4|9=57|35=0|34=315|49=Boerse|52=20170302-12:26:37.225|56=Client|10=252|
8=FIX.4.4|9=57|35=0|34=316|49=Client|52=20170302-12:26:42.225|56=Boerse|10=249|
8=FIX.4.4|9=57|35=0|34=316|49=Boerse|52=20170302-12:26:42.227|56=Client|10=251|
8=FIX.4.4|9=57|35=0|34=317|49=Client|52=20170302-12:26:47.225|56=Boerse|10=255|
8=FIX.4.4|9=57|35=0|34=317|49=Boerse|52=20170302-12:26:47.226|56=Client|10=000|
8=FIX.4.4|9=57|35=0|34=318|49=Client|52=20170302-12:26:52.225|56=Boerse|10=252|
8=FIX.4.4|9=57|35=0|34=318|49=Boerse|52=20170302-12:26:52.226|56=Client|10=253|
8=FIX.4.4|9=57|35=0|34=319|49=Client|52=20170302-12:26:57.225|56=Boerse|10=002|
8=FIX.4.4|9=57|35=0|34=319|49=Boerse|52=20170302-12:26:57.226|56=Client|10=003|
8=FIX.4.4|9=57|35=0|34=320|49=Client|52=20170302-12:27:02.225|56=Boerse|10=241|
8=FIX.4.4|9=57|35=0|34=320|49=Boerse|52=20170302-12:27:02.227|56=Client|10=243|
8=FIX.4.4|9=57|35=0|34=321|49=Client|52=20170302-12:27:07.225|56=Boerse|10=247|
8=FIX.4.4|9=57|35=0|34=321|49=Boerse|52=20170302-12:27:07.226|56=Client|10=248|
8=FIX.4.4|9=57|35=0|34=322|49=Client|52=20170302-12:27:12.225|56=Boerse|10=244|
8=FIX.4.4|9=57|35=0|34=322|49=Boerse|52=20170302-12:27:12.226|56=Client|10=245|
8=FIX.4.4|9=57|35=0|34=323|49=Client|52=20170302-12:27:17.225|56=Boerse|10=250|
8=FIX.4.4|9=57|35=0|34=323|49=Boerse|52=20170302-12:27:17.226|56=Client|10=251|
8=FIX.4.4|9=57|35=0|34=324|49=Client|52=20170302-12:27:22.225|56=Boerse|10=247|
8=FIX.4.4|9=57|35=0|34=324|49=Boerse|52=20170302-12:27:22.226|56=Client|10=248|
8=FIX.4.4|9=57|35=0|34=325|49=Client|52=20170302-12:27:27.225|56=Boerse|10=253|
8=FIX.4.4|9=57|35=0|34=325|49=Boerse|52=20170302-12:27:27.226|56=Client|10=254|
8=FIX.4.4|9=57|35=0|34=326|49=Client|52=20170302-12:27:32.225|56=Boerse|10=250|
8=FIX.4.4|9=57|35=0|34=326|49=Boerse|52=20170302-12:27:32.226|56=Client|10=251|
8=FIX.4.4|9=57|35=0|34=327|49=Client|52=20170302-12:27:37.225|56=Boerse|10=000|
8=FIX.4.4|9=57|35=0|34=327|49=Boerse|52=20170302-12:27:37.226|56=Client|10=001|
8=FIX.4.4|9=57|35=0|34=328|49=Client|52=20170302-12:27:42.225|56=Boerse|10=253|
8=FIX.4.4|9=57|35=0|34=328|49=Boerse|52=20170302-12:27:42.227|56=Client|10=255|
8=FIX.4.4|9=57|35=0|34=329|49=Client|52=20170302-12:27:47.225|56=Boerse|10=003|
8=FIX.4.4|9=57|35=0|34=329|49=Boerse|52=20170302-12:27:47.226|56=Client|10=004|
8=FIX.4.4|9=57|35=0|34=330|49=Client|52=20170302-12:27:52.225|56=Boerse|10=247|
8=FIX.4.4|9=57|35=0|34=330|49=Boerse|52=20170302-12:27:52.227|56=Client|10=249|
8=FIX.4.4|9=57|35=0|34=331|49=Client|52=20170302-12:27:57.225|56=Boerse|10=253|
8=FIX.4.4|9=57|35=0|34=331|49=Boerse|52=20170302-12:27:57.226|56=Client|10=254|
8=FIX.4.4|9=68|35=A|34=1|49=Client|52=20170302-12:29:10.650|56=Boerse|108=30|141=Y|10=010|
8=FIX.4.4|9=66|35=A|34=2|49=Client|52=20170302-12:29:11.631|56=Boerse|98=0|108=5|10=141|
8=FIX.4.4|9=66|35=A|34=1|49=Boerse|52=20170302-12:29:11.669|56=Client|98=0|108=5|10=151|
8=FIX.4.4|9=64|35=2|34=2|49=Boerse|52=20170302-12:29:11.676|56=Client|7=1|16=0|10=021|
8=FIX.4.4|9=97|35=4|34=1|43=Y|49=Client|52=20170302-12:29:11.693|56=Boerse|122=20170302-12:29:11.693|36=3|123=Y|10=168|
8=FIX.4.4|9=55|35=0|34=3|49=Client|52=20170302-12:29:17.632|56=Boerse|10=151|
8=FIX.4.4|9=55|35=0|34=3|49=Boerse|52=20170302-12:29:17.636|56=Client|10=155|
8=FIX.4.4|9=55|35=0|34=4|49=Client|52=20170302-12:29:22.631|56=Boerse|10=147|
8=FIX.4.4|9=55|35=0|34=4|49=Boerse|52=20170302-12:29:22.634|56=Client|10=150|
8=FIX.4.4|9=55|35=0|34=5|49=Client|52=20170302-12:29:27.631|56=Boerse|10=153|
8=FIX.4.4|9=55|35=0|34=5|49=Boerse|52=20170302-12:29:27.634|56=Client|10=156|
8=FIX.4.4|9=55|35=0|34=6|49=Client|52=20170302-12:29:32.631|56=Boerse|10=150|
8=FIX.4.4|9=55|35=0|34=6|49=Boerse|52=20170302-12:29:32.636|56=Client|10=155|
8=FIX.4.4|9=55|35=0|34=7|49=Client|52=20170302-12:29:37.630|56=Boerse|10=155|
8=FIX.4.4|9=55|35=0|34=7|49=Boerse|52=20170302-12:29:37.632|56=Client|10=157|
8=FIX.4.4|9=55|35=0|34=8|49=Client|52=20170302-12:29:42.630|56=Boerse|10=152|
8=FIX.4.4|9=55|35=0|34=8|49=Boerse|52=20170302-12:29:42.633|56=Client|10=155|
8=FIX.4.4|9=55|35=0|34=9|49=Client|52=20170302-12:29:47.631|56=Boerse|10=159|
8=FIX.4.4|9=55|35=0|34=9|49=Boerse|52=20170302-12:29:47.635|56=Client|10=163|
8=FIX.4.4|9=56|35=0|34=10|49=Client|52=20170302-12:29:52.631|56=Boerse|10=196|
8=FIX.4.4|9=56|35=0|34=10|49=Boerse|52=20170302-12:29:52.634|56=Client|10=199|
8=FIX.4.4|9=56|35=0|34=11|49=Client|52=20170302-12:29:57.631|56=Boerse|10=202|
8=FIX.4.4|9=56|35=0|34=11|49=Boerse|52=20170302-12:29:57.634|56=Client|10=205|
8=FIX.4.4|9=56|35=0|34=12|49=Client|52=20170302-12:30:02.631|56=Boerse|10=185|
8=FIX.4.4|9=56|35=0|34=12|49=Boerse|52=20170302-12:30:02.633|56=Client|10=187|
8=FIX.4.4|9=56|35=0|34=13|49=Client|52=20170302-12:30:07.630|56=Boerse|10=190|
8=FIX.4.4|9=56|35=0|34=13|49=Boerse|52=20170302-12:30:07.632|56=Client|10=192|
8=FIX.4.4|9=56|35=0|34=14|49=Client|52=20170302-12:30:12.631|56=Boerse|10=188|
8=FIX.4.4|9=56|35=0|34=14|49=Boerse|52=20170302-12:30:12.632|56=Client|10=189|
8=FIX.4.4|9=56|35=0|34=15|49=Client|52=20170302-12:30:17.631|56=Boerse|10=194|
8=FIX.4.4|9=56|35=0|34=15|49=Boerse|52=20170302-12:30:17.633|56=Client|10=196|
8=FIX.4.4|9=56|35=0|34=16|49=Client|52=20170302-12:30:22.630|56=Boerse|10=190|
8=FIX.4.4|9=56|35=0|34=16|49=Boerse|52=20170302-12:30:22.632|56=Client|10=192|
8=FIX.4.4|9=56|35=0|34=17|49=Client|52=20170302-12:30:27.630|56=Boerse|10=196|
8=FIX.4.4|9=56|35=0|34=17|49=Boerse|52=20170302-12:30:27.633|56=Client|10=199|
8=FIX.4.4|9=56|35=0|34=18|49=Client|52=20170302-12:30:32.630|56=Boerse|10=193|
8=FIX.4.4|9=56|35=0|34=18|49=Boerse|52=20170302-12:30:32.633|56=Client|10=196|
8=FIX.4.4|9=56|35=0|34=19|49=Client|52=20170302-12:30:37.631|56=Boerse|10=200|
8=FIX.4.4|9=56|35=0|34=19|49=Boerse|52=20170302-12:30:37.635|56=Client|10=204|
8=FIX.4.4|9=56|35=0|34=20|49=Client|52=20170302-12:30:42.631|56=Boerse|10=188|
8=FIX.4.4|9=56|35=0|34=20|49=Boerse|52=20170302-12:30:42.634|56=Client|10=191|
8=FIX.4.4|9=56|35=0|34=21|49=Client|52=20170302-12:30:47.630|56=Boerse|10=193|
8=FIX.4.4|9=56|35=0|34=21|49=Boerse|52=20170302-12:30:47.632|56=Client|10=195|
8=FIX.4.4|9=56|35=0|34=22|49=Client|52=20170302-12:30:52.630|56=Boerse|10=190|
8=FIX.4.4|9=56|35=0|34=22|49=Boerse|52=20170302-12:30:52.633|56=Client|10=193|
8=FIX.4.4|9=56|35=0|34=23|49=Client|52=20170302-12:30:57.630|56=Boerse|10=196|
8=FIX.4.4|9=56|35=0|34=23|49=Boerse|52=20170302-12:30:57.632|56=Client|10=198|
8=FIX.4.4|9=56|35=0|34=24|49=Client|52=20170302-12:31:02.631|56=Boerse|10=189|
8=FIX.4.4|9=56|35=0|34=24|49=Boerse|52=20170302-12:31:02.633|56=Client|10=191|
8=FIX.4.4|9=56|35=0|34=25|49=Client|52=20170302-12:31:07.630|56=Boerse|10=194|
8=FIX.4.4|9=56|35=0|34=25|49=Boerse|52=20170302-12:31:07.632|56=Client|10=196|
8=FIX.4.4|9=56|35=0|34=26|49=Client|52=20170302-12:31:12.631|56=Boerse|10=192|
8=FIX.4.4|9=56|35=0|34=26|49=Boerse|52=20170302-12:31:12.633|56=Client|10=194|
8=FIX.4.4|9=56|35=0|34=27|49=Client|52=20170302-12:31:17.631|56=Boerse|10=198|
8=FIX.4.4|9=56|35=0|34=27|49=Boerse|52=20170302-12:31:17.633|56=Client|10=200|
8=FIX.4.4|9=56|35=0|34=28|49=Client|52=20170302-12:31:22.630|56=Boerse|10=194|
8=FIX.4.4|9=56|35=0|34=28|49=Boerse|52=20170302-12:31:22.633|56=Client|10=197|
8=FIX.4.4|9=56|35=0|34=29|49=Client|52=20170302-12:31:27.631|56=Boerse|10=201|
8=FIX.4.4|9=56|35=0|34=29|49=Boerse|52=20170302-12:31:27.633|56=Client|10=203|
8=FIX.4.4|9=56|35=0|34=30|49=Client|52=20170302-12:31:32.630|56=Boerse|10=188|
8=FIX.4.4|9=56|35=0|34=30|49=Boerse|52=20170302-12:31:32.632|56=Client|10=190|
8=FIX.4.4|9=56|35=0|34=31|49=Client|52=20170302-12:31:37.630|56=Boerse|10=194|
8=FIX.4.4|9=56|35=0|34=31|49=Boerse|52=20170302-12:31:37.633|56=Client|10=197|
8=FIX.4.4|9=56|35=0|34=32|49=Client|52=20170302-12:31:42.631|56=Boerse|10=192|
8=FIX.4.4|9=56|35=0|34=32|49=Boerse|52=20170302-12:31:42.633|56=Client|10=194|
8=FIX.4.4|9=56|35=0|34=33|49=Client|52=20170302-12:31:47.631|56=Boerse|10=198|
8=FIX.4.4|9=56|35=0|34=33|49=Boerse|52=20170302-12:31:47.633|56=Client|10=200|
8=FIX.4.4|9=56|35=0|34=34|49=Client|52=20170302-12:31:52.631|56=Boerse|10=195|
8=FIX.4.4|9=56|35=0|34=34|49=Boerse|52=20170302-12:31:52.633|56=Client|10=197|
8=FIX.4.4|9=56|35=0|34=35|49=Client|52=20170302-12:31:57.631|56=Boerse|10=201|
8=FIX.4.4|9=56|35=0|34=35|49=Boerse|52=20170302-12:31:57.633|56=Client|10=203|
8=FIX.4.4|9=56|35=0|34=36|49=Client|52=20170302-12:32:02.630|56=Boerse|10=192|
8=FIX.4.4|9=56|35=0|34=36|49=Boerse|52=20170302-12:32:02.633|56=Client|10=195|
8=FIX.4.4|9=56|35=0|34=37|49=Client|52=20170302-12:32:07.630|56=Boerse|10=198|
8=FIX.4.4|9=56|35=0|34=37|49=Boerse|52=20170302-12:32:07.633|56=Client|10=201|
8=FIX.4.4|9=56|35=0|34=38|49=Client|52=20170302-12:32:12.631|56=Boerse|10=196|
8=FIX.4.4|9=56|35=0|34=38|49=Boerse|52=20170302-12:32:12.633|56=Client|10=198|
8=FIX.4.4|9=56|35=0|34=39|49=Client|52=20170302-12:32:17.630|56=Boerse|10=201|
8=FIX.4.4|9=56|35=0|34=39|49=Boerse|52=20170302-12:32:17.633|56=Client|10=204|
8=FIX.4.4|9=56|35=0|34=40|49=Client|52=20170302-12:32:22.631|56=Boerse|10=190|
8=FIX.4.4|9=56|35=0|34=40|49=Boerse|52=20170302-12:32:22.633|56=Client|10=192|
8=FIX.4.4|9=56|35=0|34=41|49=Client|52=20170302-12:32:27.630|56=Boerse|10=195|
8=FIX.4.4|9=56|35=0|34=41|49=Boerse|52=20170302-12:32:27.632|56=Client|10=197|
8=FIX.4.4|9=56|35=0|34=42|49=Client|52=20170302-12:32:32.631|56=Boerse|10=193|
8=FIX.4.4|9=56|35=0|34=42|49=Boerse|52=20170302-12:32:32.633|56=Client|10=195|
8=FIX.4.4|9=56|35=0|34=43|49=Client|52=20170302-12:32:37.631|56=Boerse|10=199|
8=FIX.4.4|9=56|35=0|34=43|49=Boerse|52=20170302-12:32:37.633|56=Client|10=201|
8=FIX.4.4|9=56|35=0|34=44|49=Client|52=20170302-12:32:42.631|56=Boerse|10=196|
8=FIX.4.4|9=56|35=0|34=44|49=Boerse|52=20170302-12:32:42.635|56=Client|10=200|
8=FIX.4.4|9=56|35=0|34=45|49=Client|52=20170302-12:32:47.630|56=Boerse|10=201|
8=FIX.4.4|9=56|35=0|34=45|49=Boerse|52=20170302-12:32:47.631|56=Client|10=202|
8=FIX.4.4|9=56|35=0|34=46|49=Client|52=20170302-12:32:52.631|56=Boerse|10=199|
8=FIX.4.4|9=56|35=0|34=46|49=Boerse|52=20170302-12:32:52.632|56=Client|10=200|
8=FIX.4.4|9=56|35=0|34=47|49=Client|52=20170302-12:32:57.630|56=Boerse|10=204|
8=FIX.4.4|9=56|35=0|34=47|49=Boerse|52=20170302-12:32:57.632|56=Client|10=206|
8=FIX.4.4|9=56|35=0|34=48|49=Client|52=20170302-12:33:02.630|56=Boerse|10=196|
8=FIX.4.4|9=56|35=0|34=48|49=Boerse|52=20170302-12:33:02.633|56=Client|10=199|
8=FIX.4.4|9=56|35=0|34=49|49=Client|52=20170302-12:33:07.630|56=Boerse|10=202|
8=FIX.4.4|9=56|35=0|34=49|49=Boerse|52=20170302-12:33:07.633|56=Client|10=205|
8=FIX.4.4|9=56|35=0|34=50|49=Client|52=20170302-12:33:12.631|56=Boerse|10=191|
8=FIX.4.4|9=56|35=0|34=50|49=Boerse|52=20170302-12:33:12.633|56=Client|10=193|
8=FIX.4.4|9=56|35=0|34=51|49=Client|52=20170302-12:33:17.630|56=Boerse|10=196|
8=FIX.4.4|9=56|35=0|34=51|49=Boerse|52=20170302-12:33:17.632|56=Client|10=198|
8=FIX.4.4|9=56|35=0|34=52|49=Client|52=20170302-12:33:22.630|56=Boerse|10=193|
8=FIX.4.4|9=56|35=0|34=52|49=Boerse|52=20170302-12:33:22.632|56=Client|10=195|
8=FIX.4.4|9=56|35=0|34=53|49=Client|52=20170302-12:33:27.630|56=Boerse|10=199|
8=FIX.4.4|9=56|35=0|34=53|49=Boerse|52=20170302-12:33:27.633|56=Client|10=202|
8=FIX.4.4|9=56|35=0|34=54|49=Client|52=20170302-12:33:32.630|56=Boerse|10=196|
8=FIX.4.4|9=56|35=0|34=54|49=Boerse|52=20170302-12:33:32.632|56=Client|10=198|
8=FIX.4.4|9=56|35=0|34=55|49=Client|52=20170302-12:33:37.630|56=Boerse|10=202|
8=FIX.4.4|9=56|35=0|34=55|49=Boerse|52=20170302-12:33:37.632|56=Client|10=204|
8=FIX.4.4|9=56|35=0|34=56|49=Client|52=20170302-12:33:42.630|56=Boerse|10=199|
8=FIX.4.4|9=56|35=0|34=56|49=Boerse|52=20170302-12:33:42.633|56=Client|10=202|
8=FIX.4.4|9=56|35=0|34=57|49=Client|52=20170302-12:33:47.630|56=Boerse|10=205|
