8=FIX.4.4|9=68|35=A|34=1|49=Boerse|52=20170217-09:30:58.625|56=Client|108=30|141=Y|10=027|
